{
  "_format": "hh-sol-artifact-1",
  "contractName": "NeuralMixArt",
  "sourceName": "contracts/NeuralMixArt.sol",
  "abi": [
    {
      "inputs": [
        {
          "internalType": "string",
          "name": "uri",
          "type": "string"
        },
        {
          "internalType": "bytes32",
          "name": "merkleroot",
          "type": "bytes32"
        },
        {
          "internalType": "address",
          "name": "_proxyRegistryAddress",
          "type": "address"
        }
      ],
      "stateMutability": "nonpayable",
      "type": "constructor"
    },
    {
      "anonymous": false,
      "inputs": [
        {
          "indexed": true,
          "internalType": "address",
          "name": "owner",
          "type": "address"
        },
        {
          "indexed": true,
          "internalType": "address",
          "name": "approved",
          "type": "address"
        },
        {
          "indexed": true,
          "internalType": "uint256",
          "name": "tokenId",
          "type": "uint256"
        }
      ],
      "name": "Approval",
      "type": "event"
    },
    {
      "anonymous": false,
      "inputs": [
        {
          "indexed": true,
          "internalType": "address",
          "name": "owner",
          "type": "address"
        },
        {
          "indexed": true,
          "internalType": "address",
          "name": "operator",
          "type": "address"
        },
        {
          "indexed": false,
          "internalType": "bool",
          "name": "approved",
          "type": "bool"
        }
      ],
      "name": "ApprovalForAll",
      "type": "event"
    },
    {
      "anonymous": false,
      "inputs": [
        {
          "indexed": true,
          "internalType": "address",
          "name": "previousOwner",
          "type": "address"
        },
        {
          "indexed": true,
          "internalType": "address",
          "name": "newOwner",
          "type": "address"
        }
      ],
      "name": "OwnershipTransferred",
      "type": "event"
    },
    {
      "anonymous": false,
      "inputs": [
        {
          "indexed": true,
          "internalType": "address",
          "name": "from",
          "type": "address"
        },
        {
          "indexed": true,
          "internalType": "address",
          "name": "to",
          "type": "address"
        },
        {
          "indexed": true,
          "internalType": "uint256",
          "name": "tokenId",
          "type": "uint256"
        }
      ],
      "name": "Transfer",
      "type": "event"
    },
    {
      "inputs": [
        {
          "internalType": "address",
          "name": "",
          "type": "address"
        }
      ],
      "name": "_presaleClaimed",
      "outputs": [
        {
          "internalType": "uint256",
          "name": "",
          "type": "uint256"
        }
      ],
      "stateMutability": "view",
      "type": "function"
    },
    {
      "inputs": [
        {
          "internalType": "address",
          "name": "to",
          "type": "address"
        },
        {
          "internalType": "uint256",
          "name": "tokenId",
          "type": "uint256"
        }
      ],
      "name": "approve",
      "outputs": [],
      "stateMutability": "nonpayable",
      "type": "function"
    },
    {
      "inputs": [
        {
          "internalType": "address",
          "name": "owner",
          "type": "address"
        }
      ],
      "name": "balanceOf",
      "outputs": [
        {
          "internalType": "uint256",
          "name": "",
          "type": "uint256"
        }
      ],
      "stateMutability": "view",
      "type": "function"
    },
    {
      "inputs": [],
      "name": "baseExtension",
      "outputs": [
        {
          "internalType": "string",
          "name": "",
          "type": "string"
        }
      ],
      "stateMutability": "view",
      "type": "function"
    },
    {
      "inputs": [],
      "name": "baseURI",
      "outputs": [
        {
          "internalType": "string",
          "name": "",
          "type": "string"
        }
      ],
      "stateMutability": "view",
      "type": "function"
    },
    {
      "inputs": [
        {
          "internalType": "uint256",
          "name": "tokenId",
          "type": "uint256"
        }
      ],
      "name": "getApproved",
      "outputs": [
        {
          "internalType": "address",
          "name": "",
          "type": "address"
        }
      ],
      "stateMutability": "view",
      "type": "function"
    },
    {
      "inputs": [
        {
          "internalType": "address",
          "name": "owner",
          "type": "address"
        },
        {
          "internalType": "address",
          "name": "operator",
          "type": "address"
        }
      ],
      "name": "isApprovedForAll",
      "outputs": [
        {
          "internalType": "bool",
          "name": "",
          "type": "bool"
        }
      ],
      "stateMutability": "view",
      "type": "function"
    },
    {
      "inputs": [],
      "name": "maxSupply",
      "outputs": [
        {
          "internalType": "uint256",
          "name": "",
          "type": "uint256"
        }
      ],
      "stateMutability": "view",
      "type": "function"
    },
    {
      "inputs": [],
      "name": "name",
      "outputs": [
        {
          "internalType": "string",
          "name": "",
          "type": "string"
        }
      ],
      "stateMutability": "view",
      "type": "function"
    },
    {
      "inputs": [],
      "name": "notRevealedUri",
      "outputs": [
        {
          "internalType": "string",
          "name": "",
          "type": "string"
        }
      ],
      "stateMutability": "view",
      "type": "function"
    },
    {
      "inputs": [],
      "name": "owner",
      "outputs": [
        {
          "internalType": "address",
          "name": "",
          "type": "address"
        }
      ],
      "stateMutability": "view",
      "type": "function"
    },
    {
      "inputs": [
        {
          "internalType": "uint256",
          "name": "tokenId",
          "type": "uint256"
        }
      ],
      "name": "ownerOf",
      "outputs": [
        {
          "internalType": "address",
          "name": "",
          "type": "address"
        }
      ],
      "stateMutability": "view",
      "type": "function"
    },
    {
      "inputs": [],
      "name": "paused",
      "outputs": [
        {
          "internalType": "bool",
          "name": "",
          "type": "bool"
        }
      ],
      "stateMutability": "view",
      "type": "function"
    },
    {
      "inputs": [],
      "name": "presaleM",
      "outputs": [
        {
          "internalType": "bool",
          "name": "",
          "type": "bool"
        }
      ],
      "stateMutability": "view",
      "type": "function"
    },
    {
      "inputs": [
        {
          "internalType": "address",
          "name": "account",
          "type": "address"
        },
        {
          "internalType": "uint256",
          "name": "_amount",
          "type": "uint256"
        },
        {
          "internalType": "bytes32[]",
          "name": "_proof",
          "type": "bytes32[]"
        }
      ],
      "name": "presaleMint",
      "outputs": [],
      "stateMutability": "payable",
      "type": "function"
    },
    {
      "inputs": [],
      "name": "publicM",
      "outputs": [
        {
          "internalType": "bool",
          "name": "",
          "type": "bool"
        }
      ],
      "stateMutability": "view",
      "type": "function"
    },
    {
      "inputs": [
        {
          "internalType": "uint256",
          "name": "_amount",
          "type": "uint256"
        }
      ],
      "name": "publicSaleMint",
      "outputs": [],
      "stateMutability": "payable",
      "type": "function"
    },
    {
      "inputs": [],
      "name": "renounceOwnership",
      "outputs": [],
      "stateMutability": "nonpayable",
      "type": "function"
    },
    {
      "inputs": [],
      "name": "reveal",
      "outputs": [],
      "stateMutability": "nonpayable",
      "type": "function"
    },
    {
      "inputs": [],
      "name": "revealed",
      "outputs": [
        {
          "internalType": "bool",
          "name": "",
          "type": "bool"
        }
      ],
      "stateMutability": "view",
      "type": "function"
    },
    {
      "inputs": [],
      "name": "root",
      "outputs": [
        {
          "internalType": "bytes32",
          "name": "",
          "type": "bytes32"
        }
      ],
      "stateMutability": "view",
      "type": "function"
    },
    {
      "inputs": [
        {
          "internalType": "address",
          "name": "from",
          "type": "address"
        },
        {
          "internalType": "address",
          "name": "to",
          "type": "address"
        },
        {
          "internalType": "uint256",
          "name": "tokenId",
          "type": "uint256"
        }
      ],
      "name": "safeTransferFrom",
      "outputs": [],
      "stateMutability": "nonpayable",
      "type": "function"
    },
    {
      "inputs": [
        {
          "internalType": "address",
          "name": "from",
          "type": "address"
        },
        {
          "internalType": "address",
          "name": "to",
          "type": "address"
        },
        {
          "internalType": "uint256",
          "name": "tokenId",
          "type": "uint256"
        },
        {
          "internalType": "bytes",
          "name": "data",
          "type": "bytes"
        }
      ],
      "name": "safeTransferFrom",
      "outputs": [],
      "stateMutability": "nonpayable",
      "type": "function"
    },
    {
      "inputs": [
        {
          "internalType": "address",
          "name": "operator",
          "type": "address"
        },
        {
          "internalType": "bool",
          "name": "approved",
          "type": "bool"
        }
      ],
      "name": "setApprovalForAll",
      "outputs": [],
      "stateMutability": "nonpayable",
      "type": "function"
    },
    {
      "inputs": [
        {
          "internalType": "string",
          "name": "_newBaseExtension",
          "type": "string"
        }
      ],
      "name": "setBaseExtension",
      "outputs": [],
      "stateMutability": "nonpayable",
      "type": "function"
    },
    {
      "inputs": [
        {
          "internalType": "string",
          "name": "_tokenBaseURI",
          "type": "string"
        }
      ],
      "name": "setBaseURI",
      "outputs": [],
      "stateMutability": "nonpayable",
      "type": "function"
    },
    {
      "inputs": [
        {
          "internalType": "bytes32",
          "name": "merkleroot",
          "type": "bytes32"
        }
      ],
      "name": "setMerkleRoot",
      "outputs": [],
      "stateMutability": "nonpayable",
      "type": "function"
    },
    {
      "inputs": [
        {
          "internalType": "string",
          "name": "_notRevealedURI",
          "type": "string"
        }
      ],
      "name": "setNotRevealedURI",
      "outputs": [],
      "stateMutability": "nonpayable",
      "type": "function"
    },
    {
      "inputs": [
        {
          "internalType": "bytes4",
          "name": "interfaceId",
          "type": "bytes4"
        }
      ],
      "name": "supportsInterface",
      "outputs": [
        {
          "internalType": "bool",
          "name": "",
          "type": "bool"
        }
      ],
      "stateMutability": "view",
      "type": "function"
    },
    {
      "inputs": [],
      "name": "symbol",
      "outputs": [
        {
          "internalType": "string",
          "name": "",
          "type": "string"
        }
      ],
      "stateMutability": "view",
      "type": "function"
    },
    {
      "inputs": [],
      "name": "togglePause",
      "outputs": [],
      "stateMutability": "nonpayable",
      "type": "function"
    },
    {
      "inputs": [],
      "name": "togglePresale",
      "outputs": [],
      "stateMutability": "nonpayable",
      "type": "function"
    },
    {
      "inputs": [],
      "name": "togglePublicSale",
      "outputs": [],
      "stateMutability": "nonpayable",
      "type": "function"
    },
    {
      "inputs": [
        {
          "internalType": "uint256",
          "name": "tokenId",
          "type": "uint256"
        }
      ],
      "name": "tokenURI",
      "outputs": [
        {
          "internalType": "string",
          "name": "",
          "type": "string"
        }
      ],
      "stateMutability": "view",
      "type": "function"
    },
    {
      "inputs": [],
      "name": "totalSupply",
      "outputs": [
        {
          "internalType": "uint256",
          "name": "",
          "type": "uint256"
        }
      ],
      "stateMutability": "view",
      "type": "function"
    },
    {
      "inputs": [
        {
          "internalType": "address",
          "name": "from",
          "type": "address"
        },
        {
          "internalType": "address",
          "name": "to",
          "type": "address"
        },
        {
          "internalType": "uint256",
          "name": "tokenId",
          "type": "uint256"
        }
      ],
      "name": "transferFrom",
      "outputs": [],
      "stateMutability": "nonpayable",
      "type": "function"
    },
    {
      "inputs": [
        {
          "internalType": "address",
          "name": "newOwner",
          "type": "address"
        }
      ],
      "name": "transferOwnership",
      "outputs": [],
      "stateMutability": "nonpayable",
      "type": "function"
    },
    {
      "inputs": [],
      "name": "withdraw",
      "outputs": [],
      "stateMutability": "nonpayable",
      "type": "function"
    }
  ],
  "bytecode": "0x611388600a55610100604052604160808181529062002a3860a03980516200003091600c9160209091019062000251565b5060408051808201909152600580825264173539b7b760d91b60209092019182526200005f91600d9162000251565b50600e805463ffffffff19166001908117909155600f5566f5232269808000601155669536c7089100006012553480156200009957600080fd5b5060405162002a7938038062002a79833981016040819052620000bc916200032a565b604080518082018252600c81526b13995d5c985b135a5e105c9d60a21b6020808301918252835180850190945260038452624e4d4160e81b9084015281519192916200010b9160009162000251565b5080516200012190600190602084019062000251565b5050506200013e620001386200017760201b60201c565b6200017b565b60016007556008829055600980546001600160a01b0319166001600160a01b0383161790556200016e83620001cd565b50505062000462565b3390565b600680546001600160a01b038381166001600160a01b0319831681179093556040519116919082907f8be0079c531659141344cd1fd0a4f28419497f9722a3daafe3b4186f6b6457e090600090a35050565b620001d7620001f0565b8051620001ec90600b90602084019062000251565b5050565b6006546001600160a01b031633146200024f5760405162461bcd60e51b815260206004820181905260248201527f4f776e61626c653a2063616c6c6572206973206e6f7420746865206f776e6572604482015260640160405180910390fd5b565b8280546200025f9062000425565b90600052602060002090601f016020900481019282620002835760008555620002ce565b82601f106200029e57805160ff1916838001178555620002ce565b82800160010185558215620002ce579182015b82811115620002ce578251825591602001919060010190620002b1565b50620002dc929150620002e0565b5090565b5b80821115620002dc5760008155600101620002e1565b634e487b7160e01b600052604160045260246000fd5b80516001600160a01b03811681146200032557600080fd5b919050565b6000806000606084860312156200034057600080fd5b83516001600160401b03808211156200035857600080fd5b818601915086601f8301126200036d57600080fd5b815181811115620003825762000382620002f7565b604051601f8201601f19908116603f01168101908382118183101715620003ad57620003ad620002f7565b81604052828152602093508984848701011115620003ca57600080fd5b600091505b82821015620003ee5784820184015181830185015290830190620003cf565b82821115620004005760008484830101525b80975050505080860151935050506200041c604085016200030d565b90509250925092565b600181811c908216806200043a57607f821691505b602082108114156200045c57634e487b7160e01b600052602260045260246000fd5b50919050565b6125c680620004726000396000f3fe6080604052600436106102255760003560e01c80638cc4de1911610123578063c4ae3168116100ab578063e222c7f91161006f578063e222c7f9146105fc578063e985e9c514610611578063ebf0c71714610631578063f2c4ce1e14610647578063f2fde38b1461066757600080fd5b8063c4ae31681461057c578063c668286214610591578063c87b56dd146105a6578063d5abeb01146105c6578063da3ef23f146105dc57600080fd5b8063a22cb465116100f2578063a22cb465146104f3578063a45063c014610513578063a475b5dd14610534578063b3ab66b014610549578063b88d4fde1461055c57600080fd5b80638cc4de19146104805780638da5cb5b146104ad578063954dc3e3146104cb57806395d89b41146104de57600080fd5b80633ccfd60b116101b15780636352211e116101755780636352211e146103f65780636c0360eb1461041657806370a082311461042b578063715018a61461044b5780637cb647591461046057600080fd5b80633ccfd60b1461036857806342842e0e1461037d578063518302271461039d57806355f804b3146103bc5780635c975abb146103dc57600080fd5b8063095ea7b3116101f8578063095ea7b3146102ce5780631798d58b146102f057806318160ddd1461031057806323b872dd14610333578063343937431461035357600080fd5b806301ffc9a71461022a57806306fdde031461025f578063081812fc14610281578063081c8c44146102b9575b600080fd5b34801561023657600080fd5b5061024a610245366004611eee565b610687565b60405190151581526020015b60405180910390f35b34801561026b57600080fd5b506102746106d9565b6040516102569190611f63565b34801561028d57600080fd5b506102a161029c366004611f76565b61076b565b6040516001600160a01b039091168152602001610256565b3480156102c557600080fd5b50610274610792565b3480156102da57600080fd5b506102ee6102e9366004611fa4565b610820565b005b3480156102fc57600080fd5b50600e5461024a9062010000900460ff1681565b34801561031c57600080fd5b5061032561093b565b604051908152602001610256565b34801561033f57600080fd5b506102ee61034e366004611fd0565b61094b565b34801561035f57600080fd5b506102ee61097c565b34801561037457600080fd5b506102ee6109a3565b34801561038957600080fd5b506102ee610398366004611fd0565b6109cd565b3480156103a957600080fd5b50600e5461024a90610100900460ff1681565b3480156103c857600080fd5b506102ee6103d736600461209d565b6109e8565b3480156103e857600080fd5b50600e5461024a9060ff1681565b34801561040257600080fd5b506102a1610411366004611f76565b610a07565b34801561042257600080fd5b50610274610a67565b34801561043757600080fd5b506103256104463660046120e6565b610a74565b34801561045757600080fd5b506102ee610afa565b34801561046c57600080fd5b506102ee61047b366004611f76565b610b0e565b34801561048c57600080fd5b5061032561049b3660046120e6565b60106020526000908152604090205481565b3480156104b957600080fd5b506006546001600160a01b03166102a1565b6102ee6104d9366004612103565b610b1b565b3480156104ea57600080fd5b50610274610e70565b3480156104ff57600080fd5b506102ee61050e36600461218f565b610e7f565b34801561051f57600080fd5b50600e5461024a906301000000900460ff1681565b34801561054057600080fd5b506102ee610e8a565b6102ee610557366004611f76565b610ea3565b34801561056857600080fd5b506102ee6105773660046121cd565b61106f565b34801561058857600080fd5b506102ee6110a7565b34801561059d57600080fd5b506102746110c3565b3480156105b257600080fd5b506102746105c1366004611f76565b6110d0565b3480156105d257600080fd5b50610325600a5481565b3480156105e857600080fd5b506102ee6105f736600461209d565b61124f565b34801561060857600080fd5b506102ee61126a565b34801561061d57600080fd5b5061024a61062c36600461224d565b611293565b34801561063d57600080fd5b5061032560085481565b34801561065357600080fd5b506102ee61066236600461209d565b611363565b34801561067357600080fd5b506102ee6106823660046120e6565b61137e565b60006001600160e01b031982166380ac58cd60e01b14806106b857506001600160e01b03198216635b5e139f60e01b145b806106d357506301ffc9a760e01b6001600160e01b03198316145b92915050565b6060600080546106e89061227b565b80601f01602080910402602001604051908101604052809291908181526020018280546107149061227b565b80156107615780601f1061073657610100808354040283529160200191610761565b820191906000526020600020905b81548152906001019060200180831161074457829003601f168201915b5050505050905090565b6000610776826113f4565b506000908152600460205260409020546001600160a01b031690565b600c805461079f9061227b565b80601f01602080910402602001604051908101604052809291908181526020018280546107cb9061227b565b80156108185780601f106107ed57610100808354040283529160200191610818565b820191906000526020600020905b8154815290600101906020018083116107fb57829003601f168201915b505050505081565b600061082b82610a07565b9050806001600160a01b0316836001600160a01b0316141561089e5760405162461bcd60e51b815260206004820152602160248201527f4552433732313a20617070726f76616c20746f2063757272656e74206f776e656044820152603960f91b60648201526084015b60405180910390fd5b336001600160a01b03821614806108ba57506108ba8133611293565b61092c5760405162461bcd60e51b815260206004820152603e60248201527f4552433732313a20617070726f76652063616c6c6572206973206e6f7420746f60448201527f6b656e206f776e6572206e6f7220617070726f76656420666f7220616c6c00006064820152608401610895565b6109368383611453565b505050565b600061094660135490565b905090565b61095533826114c1565b6109715760405162461bcd60e51b8152600401610895906122b6565b61093683838361151f565b6109846116bb565b600e805462ff0000198116620100009182900460ff1615909102179055565b6109ab6116bb565b476109ca7367ac2a27a7444a53a4db1317c0631822da02b4f882611715565b50565b6109368383836040518060200160405280600081525061106f565b6109f06116bb565b8051610a0390600b906020840190611e3f565b5050565b6000818152600260205260408120546001600160a01b0316806106d35760405162461bcd60e51b8152602060048201526018602482015277115490cdcc8c4e881a5b9d985b1a59081d1bdad95b88125160421b6044820152606401610895565b600b805461079f9061227b565b60006001600160a01b038216610ade5760405162461bcd60e51b815260206004820152602960248201527f4552433732313a2061646472657373207a65726f206973206e6f7420612076616044820152683634b21037bbb732b960b91b6064820152608401610895565b506001600160a01b031660009081526003602052604090205490565b610b026116bb565b610b0c600061182e565b565b610b166116bb565b600855565b8181610b92828280806020026020016040519081016040528093929190818152602001838360200280828437600092019190915250506008546040516bffffffffffffffffffffffff193360601b166020820152909250603401905060405160208183030381529060405280519060200120611880565b1515600114610bb35760405162461bcd60e51b815260040161089590612304565b333214610bd25760405162461bcd60e51b815260040161089590612304565b336001600160a01b03871614610c185760405162461bcd60e51b815260206004820152600b60248201526a139bdd08185b1b1bddd95960aa1b6044820152606401610895565b600e5462010000900460ff16610c615760405162461bcd60e51b815260206004820152600e60248201526d283932b9b0b6329034b99027a32360911b6044820152606401610895565b600e5460ff1615610ca95760405162461bcd60e51b815260206004820152601260248201527110dbdb9d1c9858dd081a5cc81c185d5cd95960721b6044820152606401610895565b600f54851115610cfb5760405162461bcd60e51b815260206004820152601d60248201527f596f752063616e2774206d696e7420736f206d75636820746f6b656e730000006044820152606401610895565b600f5433600090815260106020526040902054610d19908790612346565b1115610d675760405162461bcd60e51b815260206004820152601d60248201527f596f752063616e2774206d696e7420736f206d75636820746f6b656e730000006044820152606401610895565b6000610d7260135490565b600a54909150610d828783612346565b1115610dc65760405162461bcd60e51b815260206004820152601360248201527213585e081cdd5c1c1b1e48195e18d959591959606a1b6044820152606401610895565b3486601254610dd5919061235e565b1115610e1c5760405162461bcd60e51b8152602060048201526016602482015275139bdd08195b9bdd59da08195d1a195c9cc81cd95b9d60521b6044820152606401610895565b3360009081526010602052604081208054889290610e3b908490612346565b90915550600090505b86811015610e6657610e54611896565b80610e5e8161237d565b915050610e44565b5050505050505050565b6060600180546106e89061227b565b610a0333838361191b565b610e926116bb565b600e805461ff001916610100179055565b333214610ec25760405162461bcd60e51b815260040161089590612304565b600e546301000000900460ff16610f0f5760405162461bcd60e51b8152602060048201526011602482015270283ab13634b1a9b0b6329034b99027a32360791b6044820152606401610895565b600e5460ff1615610f575760405162461bcd60e51b815260206004820152601260248201527110dbdb9d1c9858dd081a5cc81c185d5cd95960721b6044820152606401610895565b60008111610f955760405162461bcd60e51b815260206004820152600b60248201526a16995c9bc8185b5bdd5b9d60aa1b6044820152606401610895565b6000610fa060135490565b600a54909150610fb08383612346565b1115610ff45760405162461bcd60e51b815260206004820152601360248201527213585e081cdd5c1c1b1e48195e18d959591959606a1b6044820152606401610895565b3482601154611003919061235e565b111561104a5760405162461bcd60e51b8152602060048201526016602482015275139bdd08195b9bdd59da08195d1a195c9cc81cd95b9d60521b6044820152606401610895565b60005b828110156109365761105d611896565b806110678161237d565b91505061104d565b61107933836114c1565b6110955760405162461bcd60e51b8152600401610895906122b6565b6110a1848484846119ea565b50505050565b6110af6116bb565b600e805460ff19811660ff90911615179055565b600d805461079f9061227b565b6000818152600260205260409020546060906001600160a01b031661114f5760405162461bcd60e51b815260206004820152602f60248201527f4552433732314d657461646174613a2055524920717565727920666f72206e6f60448201526e3732bc34b9ba32b73a103a37b5b2b760891b6064820152608401610895565b600e54610100900460ff166111f057600c805461116b9061227b565b80601f01602080910402602001604051908101604052809291908181526020018280546111979061227b565b80156111e45780601f106111b9576101008083540402835291602001916111e4565b820191906000526020600020905b8154815290600101906020018083116111c757829003601f168201915b50505050509050919050565b60006111fa611a1d565b9050600081511161121a5760405180602001604052806000815250611248565b8061122484611a2c565b600d60405160200161123893929190612398565b6040516020818303038152906040525b9392505050565b6112576116bb565b8051610a0390600d906020840190611e3f565b6112726116bb565b600e805463ff00000019811663010000009182900460ff1615909102179055565b60095460405163c455279160e01b81526001600160a01b03848116600483015260009281169190841690829063c45527919060240160206040518083038186803b1580156112e057600080fd5b505afa1580156112f4573d6000803e3d6000fd5b505050506040513d601f19601f82011682018060405250810190611318919061245c565b6001600160a01b031614156113315760019150506106d3565b6001600160a01b0380851660009081526005602090815260408083209387168352929052205460ff165b949350505050565b61136b6116bb565b8051610a0390600c906020840190611e3f565b6113866116bb565b6001600160a01b0381166113eb5760405162461bcd60e51b815260206004820152602660248201527f4f776e61626c653a206e6577206f776e657220697320746865207a65726f206160448201526564647265737360d01b6064820152608401610895565b6109ca8161182e565b6000818152600260205260409020546001600160a01b03166109ca5760405162461bcd60e51b8152602060048201526018602482015277115490cdcc8c4e881a5b9d985b1a59081d1bdad95b88125160421b6044820152606401610895565b600081815260046020526040902080546001600160a01b0319166001600160a01b038416908117909155819061148882610a07565b6001600160a01b03167f8c5be1e5ebec7d5bd14f71427d1e84f3dd0314c0f7b2291e5b200ac8c7c3b92560405160405180910390a45050565b6000806114cd83610a07565b9050806001600160a01b0316846001600160a01b031614806114f457506114f48185611293565b8061135b5750836001600160a01b031661150d8461076b565b6001600160a01b031614949350505050565b826001600160a01b031661153282610a07565b6001600160a01b0316146115965760405162461bcd60e51b815260206004820152602560248201527f4552433732313a207472616e736665722066726f6d20696e636f72726563742060448201526437bbb732b960d91b6064820152608401610895565b6001600160a01b0382166115f85760405162461bcd60e51b8152602060048201526024808201527f4552433732313a207472616e7366657220746f20746865207a65726f206164646044820152637265737360e01b6064820152608401610895565b611603600082611453565b6001600160a01b038316600090815260036020526040812080546001929061162c908490612479565b90915550506001600160a01b038216600090815260036020526040812080546001929061165a908490612346565b909155505060008181526002602052604080822080546001600160a01b0319166001600160a01b0386811691821790925591518493918716917fddf252ad1be2c89b69c2b068fc378daa952ba7f163c4a11628f55a4df523b3ef91a4505050565b6006546001600160a01b03163314610b0c5760405162461bcd60e51b815260206004820181905260248201527f4f776e61626c653a2063616c6c6572206973206e6f7420746865206f776e65726044820152606401610895565b804710156117655760405162461bcd60e51b815260206004820152601d60248201527f416464726573733a20696e73756666696369656e742062616c616e63650000006044820152606401610895565b6000826001600160a01b03168260405160006040518083038185875af1925050503d80600081146117b2576040519150601f19603f3d011682016040523d82523d6000602084013e6117b7565b606091505b50509050806109365760405162461bcd60e51b815260206004820152603a60248201527f416464726573733a20756e61626c6520746f2073656e642076616c75652c207260448201527f6563697069656e74206d617920686176652072657665727465640000000000006064820152608401610895565b600680546001600160a01b038381166001600160a01b0319831681179093556040519116919082907f8be0079c531659141344cd1fd0a4f28419497f9722a3daafe3b4186f6b6457e090600090a35050565b60008261188d8584611b2a565b14949350505050565b600260075414156118e95760405162461bcd60e51b815260206004820152601f60248201527f5265656e7472616e637947756172643a207265656e7472616e742063616c6c006044820152606401610895565b60026007556118fc601380546001019055565b600061190760135490565b90506119133382611b77565b506001600755565b816001600160a01b0316836001600160a01b0316141561197d5760405162461bcd60e51b815260206004820152601960248201527f4552433732313a20617070726f766520746f2063616c6c6572000000000000006044820152606401610895565b6001600160a01b03838116600081815260056020908152604080832094871680845294825291829020805460ff191686151590811790915591519182527f17307eab39ab6107e8899845ad3d59bd9653f200f220920489ca2b5937696c31910160405180910390a3505050565b6119f584848461151f565b611a0184848484611b91565b6110a15760405162461bcd60e51b815260040161089590612490565b6060600b80546106e89061227b565b606081611a505750506040805180820190915260018152600360fc1b602082015290565b8160005b8115611a7a5780611a648161237d565b9150611a739050600a836124f8565b9150611a54565b60008167ffffffffffffffff811115611a9557611a95612011565b6040519080825280601f01601f191660200182016040528015611abf576020820181803683370190505b5090505b841561135b57611ad4600183612479565b9150611ae1600a8661250c565b611aec906030612346565b60f81b818381518110611b0157611b01612520565b60200101906001600160f81b031916908160001a905350611b23600a866124f8565b9450611ac3565b600081815b8451811015611b6f57611b5b82868381518110611b4e57611b4e612520565b6020026020010151611c9e565b915080611b678161237d565b915050611b2f565b509392505050565b610a03828260405180602001604052806000815250611cca565b60006001600160a01b0384163b15611c9357604051630a85bd0160e11b81526001600160a01b0385169063150b7a0290611bd5903390899088908890600401612536565b602060405180830381600087803b158015611bef57600080fd5b505af1925050508015611c1f575060408051601f3d908101601f19168201909252611c1c91810190612573565b60015b611c79573d808015611c4d576040519150601f19603f3d011682016040523d82523d6000602084013e611c52565b606091505b508051611c715760405162461bcd60e51b815260040161089590612490565b805181602001fd5b6001600160e01b031916630a85bd0160e11b14905061135b565b506001949350505050565b6000818310611cba576000828152602084905260409020611248565b5060009182526020526040902090565b611cd48383611cfd565b611ce16000848484611b91565b6109365760405162461bcd60e51b815260040161089590612490565b6001600160a01b038216611d535760405162461bcd60e51b815260206004820181905260248201527f4552433732313a206d696e7420746f20746865207a65726f20616464726573736044820152606401610895565b6000818152600260205260409020546001600160a01b031615611db85760405162461bcd60e51b815260206004820152601c60248201527f4552433732313a20746f6b656e20616c7265616479206d696e746564000000006044820152606401610895565b6001600160a01b0382166000908152600360205260408120805460019290611de1908490612346565b909155505060008181526002602052604080822080546001600160a01b0319166001600160a01b03861690811790915590518392907fddf252ad1be2c89b69c2b068fc378daa952ba7f163c4a11628f55a4df523b3ef908290a45050565b828054611e4b9061227b565b90600052602060002090601f016020900481019282611e6d5760008555611eb3565b82601f10611e8657805160ff1916838001178555611eb3565b82800160010185558215611eb3579182015b82811115611eb3578251825591602001919060010190611e98565b50611ebf929150611ec3565b5090565b5b80821115611ebf5760008155600101611ec4565b6001600160e01b0319811681146109ca57600080fd5b600060208284031215611f0057600080fd5b813561124881611ed8565b60005b83811015611f26578181015183820152602001611f0e565b838111156110a15750506000910152565b60008151808452611f4f816020860160208601611f0b565b601f01601f19169290920160200192915050565b6020815260006112486020830184611f37565b600060208284031215611f8857600080fd5b5035919050565b6001600160a01b03811681146109ca57600080fd5b60008060408385031215611fb757600080fd5b8235611fc281611f8f565b946020939093013593505050565b600080600060608486031215611fe557600080fd5b8335611ff081611f8f565b9250602084013561200081611f8f565b929592945050506040919091013590565b634e487b7160e01b600052604160045260246000fd5b600067ffffffffffffffff8084111561204257612042612011565b604051601f8501601f19908116603f0116810190828211818310171561206a5761206a612011565b8160405280935085815286868601111561208357600080fd5b858560208301376000602087830101525050509392505050565b6000602082840312156120af57600080fd5b813567ffffffffffffffff8111156120c657600080fd5b8201601f810184136120d757600080fd5b61135b84823560208401612027565b6000602082840312156120f857600080fd5b813561124881611f8f565b6000806000806060858703121561211957600080fd5b843561212481611f8f565b935060208501359250604085013567ffffffffffffffff8082111561214857600080fd5b818701915087601f83011261215c57600080fd5b81358181111561216b57600080fd5b8860208260051b850101111561218057600080fd5b95989497505060200194505050565b600080604083850312156121a257600080fd5b82356121ad81611f8f565b9150602083013580151581146121c257600080fd5b809150509250929050565b600080600080608085870312156121e357600080fd5b84356121ee81611f8f565b935060208501356121fe81611f8f565b925060408501359150606085013567ffffffffffffffff81111561222157600080fd5b8501601f8101871361223257600080fd5b61224187823560208401612027565b91505092959194509250565b6000806040838503121561226057600080fd5b823561226b81611f8f565b915060208301356121c281611f8f565b600181811c9082168061228f57607f821691505b602082108114156122b057634e487b7160e01b600052602260045260246000fd5b50919050565b6020808252602e908201527f4552433732313a2063616c6c6572206973206e6f7420746f6b656e206f776e6560408201526d1c881b9bdc88185c1c1c9bdd995960921b606082015260800190565b6020808252601290820152712737ba1030b63637bbb2b21037b934b3b4b760711b604082015260600190565b634e487b7160e01b600052601160045260246000fd5b6000821982111561235957612359612330565b500190565b600081600019048311821515161561237857612378612330565b500290565b600060001982141561239157612391612330565b5060010190565b6000845160206123ab8285838a01611f0b565b8551918401916123be8184848a01611f0b565b8554920191600090600181811c90808316806123db57607f831692505b8583108114156123f957634e487b7160e01b85526022600452602485fd5b80801561240d576001811461241e5761244b565b60ff1985168852838801955061244b565b60008b81526020902060005b858110156124435781548a82015290840190880161242a565b505083880195505b50939b9a5050505050505050505050565b60006020828403121561246e57600080fd5b815161124881611f8f565b60008282101561248b5761248b612330565b500390565b60208082526032908201527f4552433732313a207472616e7366657220746f206e6f6e20455243373231526560408201527131b2b4bb32b91034b6b83632b6b2b73a32b960711b606082015260800190565b634e487b7160e01b600052601260045260246000fd5b600082612507576125076124e2565b500490565b60008261251b5761251b6124e2565b500690565b634e487b7160e01b600052603260045260246000fd5b6001600160a01b038581168252841660208201526040810183905260806060820181905260009061256990830184611f37565b9695505050505050565b60006020828403121561258557600080fd5b815161124881611ed856fea264697066735822122064c5f2ca11910fdd731d499cfe3bd9d0347113e3dd4d044258d0d88f6ba0848364736f6c63430008090033697066733a2f2f516d50655346736b556942537a54576a4a4c556342347245626d733750767457356a4a525a6a38747646446d38452f68696464656e2e6a736f6e",
  "linkReferences": {},
  "deployedLinkReferences": {}
}