{
  "_format": "hh-sol-artifact-1",
  "contractName": "NeuralMixArt",
  "sourceName": "contracts/NeuralMixArt.sol",
  "abi": [
    {
      "inputs": [
        {
          "internalType": "string",
          "name": "uri",
          "type": "string"
        },
        {
          "internalType": "bytes32",
          "name": "merkleroot",
          "type": "bytes32"
        },
        {
          "internalType": "address",
          "name": "_proxyRegistryAddress",
          "type": "address"
        }
      ],
      "stateMutability": "nonpayable",
      "type": "constructor"
    },
    {
      "anonymous": false,
      "inputs": [
        {
          "indexed": true,
          "internalType": "address",
          "name": "owner",
          "type": "address"
        },
        {
          "indexed": true,
          "internalType": "address",
          "name": "approved",
          "type": "address"
        },
        {
          "indexed": true,
          "internalType": "uint256",
          "name": "tokenId",
          "type": "uint256"
        }
      ],
      "name": "Approval",
      "type": "event"
    },
    {
      "anonymous": false,
      "inputs": [
        {
          "indexed": true,
          "internalType": "address",
          "name": "owner",
          "type": "address"
        },
        {
          "indexed": true,
          "internalType": "address",
          "name": "operator",
          "type": "address"
        },
        {
          "indexed": false,
          "internalType": "bool",
          "name": "approved",
          "type": "bool"
        }
      ],
      "name": "ApprovalForAll",
      "type": "event"
    },
    {
      "anonymous": false,
      "inputs": [
        {
          "indexed": true,
          "internalType": "address",
          "name": "previousOwner",
          "type": "address"
        },
        {
          "indexed": true,
          "internalType": "address",
          "name": "newOwner",
          "type": "address"
        }
      ],
      "name": "OwnershipTransferred",
      "type": "event"
    },
    {
      "anonymous": false,
      "inputs": [
        {
          "indexed": true,
          "internalType": "address",
          "name": "from",
          "type": "address"
        },
        {
          "indexed": true,
          "internalType": "address",
          "name": "to",
          "type": "address"
        },
        {
          "indexed": true,
          "internalType": "uint256",
          "name": "tokenId",
          "type": "uint256"
        }
      ],
      "name": "Transfer",
      "type": "event"
    },
    {
      "inputs": [
        {
          "internalType": "address",
          "name": "",
          "type": "address"
        }
      ],
      "name": "_presaleClaimed",
      "outputs": [
        {
          "internalType": "uint256",
          "name": "",
          "type": "uint256"
        }
      ],
      "stateMutability": "view",
      "type": "function"
    },
    {
      "inputs": [],
      "name": "_presalePrice",
      "outputs": [
        {
          "internalType": "uint256",
          "name": "",
          "type": "uint256"
        }
      ],
      "stateMutability": "view",
      "type": "function"
    },
    {
      "inputs": [],
      "name": "_price",
      "outputs": [
        {
          "internalType": "uint256",
          "name": "",
          "type": "uint256"
        }
      ],
      "stateMutability": "view",
      "type": "function"
    },
    {
      "inputs": [
        {
          "internalType": "address",
          "name": "to",
          "type": "address"
        },
        {
          "internalType": "uint256",
          "name": "tokenId",
          "type": "uint256"
        }
      ],
      "name": "approve",
      "outputs": [],
      "stateMutability": "nonpayable",
      "type": "function"
    },
    {
      "inputs": [
        {
          "internalType": "address",
          "name": "owner",
          "type": "address"
        }
      ],
      "name": "balanceOf",
      "outputs": [
        {
          "internalType": "uint256",
          "name": "",
          "type": "uint256"
        }
      ],
      "stateMutability": "view",
      "type": "function"
    },
    {
      "inputs": [],
      "name": "baseExtension",
      "outputs": [
        {
          "internalType": "string",
          "name": "",
          "type": "string"
        }
      ],
      "stateMutability": "view",
      "type": "function"
    },
    {
      "inputs": [],
      "name": "baseURI",
      "outputs": [
        {
          "internalType": "string",
          "name": "",
          "type": "string"
        }
      ],
      "stateMutability": "view",
      "type": "function"
    },
    {
      "inputs": [
        {
          "internalType": "uint256",
          "name": "tokenId",
          "type": "uint256"
        }
      ],
      "name": "getApproved",
      "outputs": [
        {
          "internalType": "address",
          "name": "",
          "type": "address"
        }
      ],
      "stateMutability": "view",
      "type": "function"
    },
    {
      "inputs": [
        {
          "internalType": "address",
          "name": "owner",
          "type": "address"
        },
        {
          "internalType": "address",
          "name": "operator",
          "type": "address"
        }
      ],
      "name": "isApprovedForAll",
      "outputs": [
        {
          "internalType": "bool",
          "name": "",
          "type": "bool"
        }
      ],
      "stateMutability": "view",
      "type": "function"
    },
    {
      "inputs": [],
      "name": "maxPreSaleSupply",
      "outputs": [
        {
          "internalType": "uint256",
          "name": "",
          "type": "uint256"
        }
      ],
      "stateMutability": "view",
      "type": "function"
    },
    {
      "inputs": [],
      "name": "maxSupply",
      "outputs": [
        {
          "internalType": "uint256",
          "name": "",
          "type": "uint256"
        }
      ],
      "stateMutability": "view",
      "type": "function"
    },
    {
      "inputs": [],
      "name": "name",
      "outputs": [
        {
          "internalType": "string",
          "name": "",
          "type": "string"
        }
      ],
      "stateMutability": "view",
      "type": "function"
    },
    {
      "inputs": [],
      "name": "notRevealedUri",
      "outputs": [
        {
          "internalType": "string",
          "name": "",
          "type": "string"
        }
      ],
      "stateMutability": "view",
      "type": "function"
    },
    {
      "inputs": [],
      "name": "owner",
      "outputs": [
        {
          "internalType": "address",
          "name": "",
          "type": "address"
        }
      ],
      "stateMutability": "view",
      "type": "function"
    },
    {
      "inputs": [
        {
          "internalType": "uint256",
          "name": "tokenId",
          "type": "uint256"
        }
      ],
      "name": "ownerOf",
      "outputs": [
        {
          "internalType": "address",
          "name": "",
          "type": "address"
        }
      ],
      "stateMutability": "view",
      "type": "function"
    },
    {
      "inputs": [],
      "name": "paused",
      "outputs": [
        {
          "internalType": "bool",
          "name": "",
          "type": "bool"
        }
      ],
      "stateMutability": "view",
      "type": "function"
    },
    {
      "inputs": [],
      "name": "presaleM",
      "outputs": [
        {
          "internalType": "bool",
          "name": "",
          "type": "bool"
        }
      ],
      "stateMutability": "view",
      "type": "function"
    },
    {
      "inputs": [
        {
          "internalType": "address",
          "name": "account",
          "type": "address"
        },
        {
          "internalType": "uint256",
          "name": "_amount",
          "type": "uint256"
        },
        {
          "internalType": "bytes32[]",
          "name": "_proof",
          "type": "bytes32[]"
        }
      ],
      "name": "presaleMint",
      "outputs": [],
      "stateMutability": "payable",
      "type": "function"
    },
    {
      "inputs": [],
      "name": "publicM",
      "outputs": [
        {
          "internalType": "bool",
          "name": "",
          "type": "bool"
        }
      ],
      "stateMutability": "view",
      "type": "function"
    },
    {
      "inputs": [
        {
          "internalType": "uint256",
          "name": "_amount",
          "type": "uint256"
        }
      ],
      "name": "publicSaleMint",
      "outputs": [],
      "stateMutability": "payable",
      "type": "function"
    },
    {
      "inputs": [],
      "name": "renounceOwnership",
      "outputs": [],
      "stateMutability": "nonpayable",
      "type": "function"
    },
    {
      "inputs": [],
      "name": "reveal",
      "outputs": [],
      "stateMutability": "nonpayable",
      "type": "function"
    },
    {
      "inputs": [],
      "name": "revealed",
      "outputs": [
        {
          "internalType": "bool",
          "name": "",
          "type": "bool"
        }
      ],
      "stateMutability": "view",
      "type": "function"
    },
    {
      "inputs": [],
      "name": "root",
      "outputs": [
        {
          "internalType": "bytes32",
          "name": "",
          "type": "bytes32"
        }
      ],
      "stateMutability": "view",
      "type": "function"
    },
    {
      "inputs": [
        {
          "internalType": "address",
          "name": "from",
          "type": "address"
        },
        {
          "internalType": "address",
          "name": "to",
          "type": "address"
        },
        {
          "internalType": "uint256",
          "name": "tokenId",
          "type": "uint256"
        }
      ],
      "name": "safeTransferFrom",
      "outputs": [],
      "stateMutability": "nonpayable",
      "type": "function"
    },
    {
      "inputs": [
        {
          "internalType": "address",
          "name": "from",
          "type": "address"
        },
        {
          "internalType": "address",
          "name": "to",
          "type": "address"
        },
        {
          "internalType": "uint256",
          "name": "tokenId",
          "type": "uint256"
        },
        {
          "internalType": "bytes",
          "name": "data",
          "type": "bytes"
        }
      ],
      "name": "safeTransferFrom",
      "outputs": [],
      "stateMutability": "nonpayable",
      "type": "function"
    },
    {
      "inputs": [
        {
          "internalType": "address",
          "name": "operator",
          "type": "address"
        },
        {
          "internalType": "bool",
          "name": "approved",
          "type": "bool"
        }
      ],
      "name": "setApprovalForAll",
      "outputs": [],
      "stateMutability": "nonpayable",
      "type": "function"
    },
    {
      "inputs": [
        {
          "internalType": "string",
          "name": "_newBaseExtension",
          "type": "string"
        }
      ],
      "name": "setBaseExtension",
      "outputs": [],
      "stateMutability": "nonpayable",
      "type": "function"
    },
    {
      "inputs": [
        {
          "internalType": "string",
          "name": "_tokenBaseURI",
          "type": "string"
        }
      ],
      "name": "setBaseURI",
      "outputs": [],
      "stateMutability": "nonpayable",
      "type": "function"
    },
    {
      "inputs": [
        {
          "internalType": "bytes32",
          "name": "merkleroot",
          "type": "bytes32"
        }
      ],
      "name": "setMerkleRoot",
      "outputs": [],
      "stateMutability": "nonpayable",
      "type": "function"
    },
    {
      "inputs": [
        {
          "internalType": "uint256",
          "name": "newPrice",
          "type": "uint256"
        }
      ],
      "name": "setMintPrice",
      "outputs": [],
      "stateMutability": "nonpayable",
      "type": "function"
    },
    {
      "inputs": [
        {
          "internalType": "string",
          "name": "_notRevealedURI",
          "type": "string"
        }
      ],
      "name": "setNotRevealedURI",
      "outputs": [],
      "stateMutability": "nonpayable",
      "type": "function"
    },
    {
      "inputs": [
        {
          "internalType": "uint256",
          "name": "newPresalePrice",
          "type": "uint256"
        }
      ],
      "name": "setPreSaleMintPrice",
      "outputs": [],
      "stateMutability": "nonpayable",
      "type": "function"
    },
    {
      "inputs": [
        {
          "internalType": "bytes4",
          "name": "interfaceId",
          "type": "bytes4"
        }
      ],
      "name": "supportsInterface",
      "outputs": [
        {
          "internalType": "bool",
          "name": "",
          "type": "bool"
        }
      ],
      "stateMutability": "view",
      "type": "function"
    },
    {
      "inputs": [],
      "name": "symbol",
      "outputs": [
        {
          "internalType": "string",
          "name": "",
          "type": "string"
        }
      ],
      "stateMutability": "view",
      "type": "function"
    },
    {
      "inputs": [],
      "name": "togglePause",
      "outputs": [],
      "stateMutability": "nonpayable",
      "type": "function"
    },
    {
      "inputs": [],
      "name": "togglePresale",
      "outputs": [],
      "stateMutability": "nonpayable",
      "type": "function"
    },
    {
      "inputs": [],
      "name": "togglePublicSale",
      "outputs": [],
      "stateMutability": "nonpayable",
      "type": "function"
    },
    {
      "inputs": [
        {
          "internalType": "uint256",
          "name": "tokenId",
          "type": "uint256"
        }
      ],
      "name": "tokenURI",
      "outputs": [
        {
          "internalType": "string",
          "name": "",
          "type": "string"
        }
      ],
      "stateMutability": "view",
      "type": "function"
    },
    {
      "inputs": [],
      "name": "totalSupply",
      "outputs": [
        {
          "internalType": "uint256",
          "name": "",
          "type": "uint256"
        }
      ],
      "stateMutability": "view",
      "type": "function"
    },
    {
      "inputs": [
        {
          "internalType": "address",
          "name": "from",
          "type": "address"
        },
        {
          "internalType": "address",
          "name": "to",
          "type": "address"
        },
        {
          "internalType": "uint256",
          "name": "tokenId",
          "type": "uint256"
        }
      ],
      "name": "transferFrom",
      "outputs": [],
      "stateMutability": "nonpayable",
      "type": "function"
    },
    {
      "inputs": [
        {
          "internalType": "address",
          "name": "newOwner",
          "type": "address"
        }
      ],
      "name": "transferOwnership",
      "outputs": [],
      "stateMutability": "nonpayable",
      "type": "function"
    },
    {
      "inputs": [],
      "name": "withdraw",
      "outputs": [],
      "stateMutability": "nonpayable",
      "type": "function"
    }
  ],
  "bytecode": "0x600a80556005600b55610100604052604160808181529062002b1260a03980516200003391600d916020909101906200024e565b5060408051808201909152600580825264173539b7b760d91b60209092019182526200006291600e916200024e565b50600f805463ffffffff19166001908117909155601055662386f26fc1000060125560006013553480156200009657600080fd5b5060405162002b5338038062002b53833981016040819052620000b99162000327565b604080518082018252600c81526b13995d5c985b135a5e105c9d60a21b6020808301918252835180850190945260038452624e4d4160e81b90840152815191929162000108916000916200024e565b5080516200011e9060019060208401906200024e565b5050506200013b620001356200017460201b60201c565b62000178565b60016007556008829055600980546001600160a01b0319166001600160a01b0383161790556200016b83620001ca565b5050506200045f565b3390565b600680546001600160a01b038381166001600160a01b0319831681179093556040519116919082907f8be0079c531659141344cd1fd0a4f28419497f9722a3daafe3b4186f6b6457e090600090a35050565b620001d4620001ed565b8051620001e990600c9060208401906200024e565b5050565b6006546001600160a01b031633146200024c5760405162461bcd60e51b815260206004820181905260248201527f4f776e61626c653a2063616c6c6572206973206e6f7420746865206f776e6572604482015260640160405180910390fd5b565b8280546200025c9062000422565b90600052602060002090601f016020900481019282620002805760008555620002cb565b82601f106200029b57805160ff1916838001178555620002cb565b82800160010185558215620002cb579182015b82811115620002cb578251825591602001919060010190620002ae565b50620002d9929150620002dd565b5090565b5b80821115620002d95760008155600101620002de565b634e487b7160e01b600052604160045260246000fd5b80516001600160a01b03811681146200032257600080fd5b919050565b6000806000606084860312156200033d57600080fd5b83516001600160401b03808211156200035557600080fd5b818601915086601f8301126200036a57600080fd5b8151818111156200037f576200037f620002f4565b604051601f8201601f19908116603f01168101908382118183101715620003aa57620003aa620002f4565b81604052828152602093508984848701011115620003c757600080fd5b600091505b82821015620003eb5784820184015181830185015290830190620003cc565b82821115620003fd5760008484830101525b809750505050808601519350505062000419604085016200030a565b90509250925092565b600181811c908216806200043757607f821691505b602082108114156200045957634e487b7160e01b600052602260045260246000fd5b50919050565b6126a3806200046f6000396000f3fe60806040526004361061025c5760003560e01c80637cb6475911610144578063c6682862116100b6578063e222c7f91161007a578063e222c7f914610695578063e985e9c5146106aa578063ebf0c717146106ca578063f2c4ce1e146106e0578063f2fde38b14610700578063f4a0a5281461072057600080fd5b8063c668286214610614578063c87b56dd14610629578063d5abeb0114610649578063da3ef23f1461065f578063e0a59e2c1461067f57600080fd5b8063a22cb46511610108578063a22cb46514610576578063a45063c014610596578063a475b5dd146105b7578063b3ab66b0146105cc578063b88d4fde146105df578063c4ae3168146105ff57600080fd5b80637cb64759146104e35780638cc4de19146105035780638da5cb5b14610530578063954dc3e31461054e57806395d89b411461056157600080fd5b80633b9ee7e4116101dd5780635c975abb116101a15780635c975abb146104495780635f0d246a146104635780636352211e146104795780636c0360eb1461049957806370a08231146104ae578063715018a6146104ce57600080fd5b80633b9ee7e4146103b55780633ccfd60b146103d557806342842e0e146103ea578063518302271461040a57806355f804b31461042957600080fd5b80631798d58b116102245780631798d58b1461032757806318160ddd14610347578063235b6ea11461036a57806323b872dd1461038057806334393743146103a057600080fd5b806301ffc9a71461026157806306fdde0314610296578063081812fc146102b8578063081c8c44146102f0578063095ea7b314610305575b600080fd5b34801561026d57600080fd5b5061028161027c366004611fcb565b610740565b60405190151581526020015b60405180910390f35b3480156102a257600080fd5b506102ab610792565b60405161028d9190612040565b3480156102c457600080fd5b506102d86102d3366004612053565b610824565b6040516001600160a01b03909116815260200161028d565b3480156102fc57600080fd5b506102ab61084b565b34801561031157600080fd5b50610325610320366004612081565b6108d9565b005b34801561033357600080fd5b50600f546102819062010000900460ff1681565b34801561035357600080fd5b5061035c6109f4565b60405190815260200161028d565b34801561037657600080fd5b5061035c60125481565b34801561038c57600080fd5b5061032561039b3660046120ad565b610a04565b3480156103ac57600080fd5b50610325610a35565b3480156103c157600080fd5b506103256103d0366004612053565b610a5c565b3480156103e157600080fd5b50610325610a69565b3480156103f657600080fd5b506103256104053660046120ad565b610a93565b34801561041657600080fd5b50600f5461028190610100900460ff1681565b34801561043557600080fd5b5061032561044436600461217a565b610aae565b34801561045557600080fd5b50600f546102819060ff1681565b34801561046f57600080fd5b5061035c60135481565b34801561048557600080fd5b506102d8610494366004612053565b610acd565b3480156104a557600080fd5b506102ab610b2d565b3480156104ba57600080fd5b5061035c6104c93660046121c3565b610b3a565b3480156104da57600080fd5b50610325610bc0565b3480156104ef57600080fd5b506103256104fe366004612053565b610bd4565b34801561050f57600080fd5b5061035c61051e3660046121c3565b60116020526000908152604090205481565b34801561053c57600080fd5b506006546001600160a01b03166102d8565b61032561055c3660046121e0565b610be1565b34801561056d57600080fd5b506102ab610f40565b34801561058257600080fd5b5061032561059136600461226c565b610f4f565b3480156105a257600080fd5b50600f54610281906301000000900460ff1681565b3480156105c357600080fd5b50610325610f5a565b6103256105da366004612053565b610f73565b3480156105eb57600080fd5b506103256105fa3660046122aa565b61113f565b34801561060b57600080fd5b50610325611177565b34801561062057600080fd5b506102ab611193565b34801561063557600080fd5b506102ab610644366004612053565b6111a0565b34801561065557600080fd5b5061035c600a5481565b34801561066b57600080fd5b5061032561067a36600461217a565b61131f565b34801561068b57600080fd5b5061035c600b5481565b3480156106a157600080fd5b5061032561133a565b3480156106b657600080fd5b506102816106c536600461232a565b611363565b3480156106d657600080fd5b5061035c60085481565b3480156106ec57600080fd5b506103256106fb36600461217a565b611433565b34801561070c57600080fd5b5061032561071b3660046121c3565b61144e565b34801561072c57600080fd5b5061032561073b366004612053565b6114c4565b60006001600160e01b031982166380ac58cd60e01b148061077157506001600160e01b03198216635b5e139f60e01b145b8061078c57506301ffc9a760e01b6001600160e01b03198316145b92915050565b6060600080546107a190612358565b80601f01602080910402602001604051908101604052809291908181526020018280546107cd90612358565b801561081a5780601f106107ef5761010080835404028352916020019161081a565b820191906000526020600020905b8154815290600101906020018083116107fd57829003601f168201915b5050505050905090565b600061082f826114d1565b506000908152600460205260409020546001600160a01b031690565b600d805461085890612358565b80601f016020809104026020016040519081016040528092919081815260200182805461088490612358565b80156108d15780601f106108a6576101008083540402835291602001916108d1565b820191906000526020600020905b8154815290600101906020018083116108b457829003601f168201915b505050505081565b60006108e482610acd565b9050806001600160a01b0316836001600160a01b031614156109575760405162461bcd60e51b815260206004820152602160248201527f4552433732313a20617070726f76616c20746f2063757272656e74206f776e656044820152603960f91b60648201526084015b60405180910390fd5b336001600160a01b038216148061097357506109738133611363565b6109e55760405162461bcd60e51b815260206004820152603e60248201527f4552433732313a20617070726f76652063616c6c6572206973206e6f7420746f60448201527f6b656e206f776e6572206e6f7220617070726f76656420666f7220616c6c0000606482015260840161094e565b6109ef8383611530565b505050565b60006109ff60145490565b905090565b610a0e338261159e565b610a2a5760405162461bcd60e51b815260040161094e90612393565b6109ef8383836115fc565b610a3d611798565b600f805462ff0000198116620100009182900460ff1615909102179055565b610a64611798565b601355565b610a71611798565b47610a907367ac2a27a7444a53a4db1317c0631822da02b4f8826117f2565b50565b6109ef8383836040518060200160405280600081525061113f565b610ab6611798565b8051610ac990600c906020840190611f1c565b5050565b6000818152600260205260408120546001600160a01b03168061078c5760405162461bcd60e51b8152602060048201526018602482015277115490cdcc8c4e881a5b9d985b1a59081d1bdad95b88125160421b604482015260640161094e565b600c805461085890612358565b60006001600160a01b038216610ba45760405162461bcd60e51b815260206004820152602960248201527f4552433732313a2061646472657373207a65726f206973206e6f7420612076616044820152683634b21037bbb732b960b91b606482015260840161094e565b506001600160a01b031660009081526003602052604090205490565b610bc8611798565b610bd2600061190b565b565b610bdc611798565b600855565b8181610c58828280806020026020016040519081016040528093929190818152602001838360200280828437600092019190915250506008546040516bffffffffffffffffffffffff193360601b16602082015290925060340190506040516020818303038152906040528051906020012061195d565b1515600114610c795760405162461bcd60e51b815260040161094e906123e1565b333214610c985760405162461bcd60e51b815260040161094e906123e1565b336001600160a01b03871614610cde5760405162461bcd60e51b815260206004820152600b60248201526a139bdd08185b1b1bddd95960aa1b604482015260640161094e565b600f5462010000900460ff16610d275760405162461bcd60e51b815260206004820152600e60248201526d283932b9b0b6329034b99027a32360911b604482015260640161094e565b600f5460ff1615610d6f5760405162461bcd60e51b815260206004820152601260248201527110dbdb9d1c9858dd081a5cc81c185d5cd95960721b604482015260640161094e565b601054851115610dc15760405162461bcd60e51b815260206004820152601d60248201527f596f752063616e2774206d696e7420736f206d75636820746f6b656e73000000604482015260640161094e565b60105433600090815260116020526040902054610ddf908790612423565b1115610e2d5760405162461bcd60e51b815260206004820152601d60248201527f596f752063616e2774206d696e7420736f206d75636820746f6b656e73000000604482015260640161094e565b6000610e3860145490565b600b54909150610e488783612423565b1115610e965760405162461bcd60e51b815260206004820152601b60248201527f4d61782070726573616c6520737570706c792065786365656465640000000000604482015260640161094e565b3486601354610ea5919061243b565b1115610eec5760405162461bcd60e51b8152602060048201526016602482015275139bdd08195b9bdd59da08195d1a195c9cc81cd95b9d60521b604482015260640161094e565b3360009081526011602052604081208054889290610f0b908490612423565b90915550600090505b86811015610f3657610f24611973565b80610f2e8161245a565b915050610f14565b5050505050505050565b6060600180546107a190612358565b610ac93383836119f8565b610f62611798565b600f805461ff001916610100179055565b333214610f925760405162461bcd60e51b815260040161094e906123e1565b600f546301000000900460ff16610fdf5760405162461bcd60e51b8152602060048201526011602482015270283ab13634b1a9b0b6329034b99027a32360791b604482015260640161094e565b600f5460ff16156110275760405162461bcd60e51b815260206004820152601260248201527110dbdb9d1c9858dd081a5cc81c185d5cd95960721b604482015260640161094e565b600081116110655760405162461bcd60e51b815260206004820152600b60248201526a16995c9bc8185b5bdd5b9d60aa1b604482015260640161094e565b600061107060145490565b600a549091506110808383612423565b11156110c45760405162461bcd60e51b815260206004820152601360248201527213585e081cdd5c1c1b1e48195e18d959591959606a1b604482015260640161094e565b34826012546110d3919061243b565b111561111a5760405162461bcd60e51b8152602060048201526016602482015275139bdd08195b9bdd59da08195d1a195c9cc81cd95b9d60521b604482015260640161094e565b60005b828110156109ef5761112d611973565b806111378161245a565b91505061111d565b611149338361159e565b6111655760405162461bcd60e51b815260040161094e90612393565b61117184848484611ac7565b50505050565b61117f611798565b600f805460ff19811660ff90911615179055565b600e805461085890612358565b6000818152600260205260409020546060906001600160a01b031661121f5760405162461bcd60e51b815260206004820152602f60248201527f4552433732314d657461646174613a2055524920717565727920666f72206e6f60448201526e3732bc34b9ba32b73a103a37b5b2b760891b606482015260840161094e565b600f54610100900460ff166112c057600d805461123b90612358565b80601f016020809104026020016040519081016040528092919081815260200182805461126790612358565b80156112b45780601f10611289576101008083540402835291602001916112b4565b820191906000526020600020905b81548152906001019060200180831161129757829003601f168201915b50505050509050919050565b60006112ca611afa565b905060008151116112ea5760405180602001604052806000815250611318565b806112f484611b09565b600e60405160200161130893929190612475565b6040516020818303038152906040525b9392505050565b611327611798565b8051610ac990600e906020840190611f1c565b611342611798565b600f805463ff00000019811663010000009182900460ff1615909102179055565b60095460405163c455279160e01b81526001600160a01b03848116600483015260009281169190841690829063c45527919060240160206040518083038186803b1580156113b057600080fd5b505afa1580156113c4573d6000803e3d6000fd5b505050506040513d601f19601f820116820180604052508101906113e89190612539565b6001600160a01b0316141561140157600191505061078c565b6001600160a01b0380851660009081526005602090815260408083209387168352929052205460ff165b949350505050565b61143b611798565b8051610ac990600d906020840190611f1c565b611456611798565b6001600160a01b0381166114bb5760405162461bcd60e51b815260206004820152602660248201527f4f776e61626c653a206e6577206f776e657220697320746865207a65726f206160448201526564647265737360d01b606482015260840161094e565b610a908161190b565b6114cc611798565b601255565b6000818152600260205260409020546001600160a01b0316610a905760405162461bcd60e51b8152602060048201526018602482015277115490cdcc8c4e881a5b9d985b1a59081d1bdad95b88125160421b604482015260640161094e565b600081815260046020526040902080546001600160a01b0319166001600160a01b038416908117909155819061156582610acd565b6001600160a01b03167f8c5be1e5ebec7d5bd14f71427d1e84f3dd0314c0f7b2291e5b200ac8c7c3b92560405160405180910390a45050565b6000806115aa83610acd565b9050806001600160a01b0316846001600160a01b031614806115d157506115d18185611363565b8061142b5750836001600160a01b03166115ea84610824565b6001600160a01b031614949350505050565b826001600160a01b031661160f82610acd565b6001600160a01b0316146116735760405162461bcd60e51b815260206004820152602560248201527f4552433732313a207472616e736665722066726f6d20696e636f72726563742060448201526437bbb732b960d91b606482015260840161094e565b6001600160a01b0382166116d55760405162461bcd60e51b8152602060048201526024808201527f4552433732313a207472616e7366657220746f20746865207a65726f206164646044820152637265737360e01b606482015260840161094e565b6116e0600082611530565b6001600160a01b0383166000908152600360205260408120805460019290611709908490612556565b90915550506001600160a01b0382166000908152600360205260408120805460019290611737908490612423565b909155505060008181526002602052604080822080546001600160a01b0319166001600160a01b0386811691821790925591518493918716917fddf252ad1be2c89b69c2b068fc378daa952ba7f163c4a11628f55a4df523b3ef91a4505050565b6006546001600160a01b03163314610bd25760405162461bcd60e51b815260206004820181905260248201527f4f776e61626c653a2063616c6c6572206973206e6f7420746865206f776e6572604482015260640161094e565b804710156118425760405162461bcd60e51b815260206004820152601d60248201527f416464726573733a20696e73756666696369656e742062616c616e6365000000604482015260640161094e565b6000826001600160a01b03168260405160006040518083038185875af1925050503d806000811461188f576040519150601f19603f3d011682016040523d82523d6000602084013e611894565b606091505b50509050806109ef5760405162461bcd60e51b815260206004820152603a60248201527f416464726573733a20756e61626c6520746f2073656e642076616c75652c207260448201527f6563697069656e74206d61792068617665207265766572746564000000000000606482015260840161094e565b600680546001600160a01b038381166001600160a01b0319831681179093556040519116919082907f8be0079c531659141344cd1fd0a4f28419497f9722a3daafe3b4186f6b6457e090600090a35050565b60008261196a8584611c07565b14949350505050565b600260075414156119c65760405162461bcd60e51b815260206004820152601f60248201527f5265656e7472616e637947756172643a207265656e7472616e742063616c6c00604482015260640161094e565b60026007556119d9601480546001019055565b60006119e460145490565b90506119f03382611c54565b506001600755565b816001600160a01b0316836001600160a01b03161415611a5a5760405162461bcd60e51b815260206004820152601960248201527f4552433732313a20617070726f766520746f2063616c6c657200000000000000604482015260640161094e565b6001600160a01b03838116600081815260056020908152604080832094871680845294825291829020805460ff191686151590811790915591519182527f17307eab39ab6107e8899845ad3d59bd9653f200f220920489ca2b5937696c31910160405180910390a3505050565b611ad28484846115fc565b611ade84848484611c6e565b6111715760405162461bcd60e51b815260040161094e9061256d565b6060600c80546107a190612358565b606081611b2d5750506040805180820190915260018152600360fc1b602082015290565b8160005b8115611b575780611b418161245a565b9150611b509050600a836125d5565b9150611b31565b60008167ffffffffffffffff811115611b7257611b726120ee565b6040519080825280601f01601f191660200182016040528015611b9c576020820181803683370190505b5090505b841561142b57611bb1600183612556565b9150611bbe600a866125e9565b611bc9906030612423565b60f81b818381518110611bde57611bde6125fd565b60200101906001600160f81b031916908160001a905350611c00600a866125d5565b9450611ba0565b600081815b8451811015611c4c57611c3882868381518110611c2b57611c2b6125fd565b6020026020010151611d7b565b915080611c448161245a565b915050611c0c565b509392505050565b610ac9828260405180602001604052806000815250611da7565b60006001600160a01b0384163b15611d7057604051630a85bd0160e11b81526001600160a01b0385169063150b7a0290611cb2903390899088908890600401612613565b602060405180830381600087803b158015611ccc57600080fd5b505af1925050508015611cfc575060408051601f3d908101601f19168201909252611cf991810190612650565b60015b611d56573d808015611d2a576040519150601f19603f3d011682016040523d82523d6000602084013e611d2f565b606091505b508051611d4e5760405162461bcd60e51b815260040161094e9061256d565b805181602001fd5b6001600160e01b031916630a85bd0160e11b14905061142b565b506001949350505050565b6000818310611d97576000828152602084905260409020611318565b5060009182526020526040902090565b611db18383611dda565b611dbe6000848484611c6e565b6109ef5760405162461bcd60e51b815260040161094e9061256d565b6001600160a01b038216611e305760405162461bcd60e51b815260206004820181905260248201527f4552433732313a206d696e7420746f20746865207a65726f2061646472657373604482015260640161094e565b6000818152600260205260409020546001600160a01b031615611e955760405162461bcd60e51b815260206004820152601c60248201527f4552433732313a20746f6b656e20616c7265616479206d696e74656400000000604482015260640161094e565b6001600160a01b0382166000908152600360205260408120805460019290611ebe908490612423565b909155505060008181526002602052604080822080546001600160a01b0319166001600160a01b03861690811790915590518392907fddf252ad1be2c89b69c2b068fc378daa952ba7f163c4a11628f55a4df523b3ef908290a45050565b828054611f2890612358565b90600052602060002090601f016020900481019282611f4a5760008555611f90565b82601f10611f6357805160ff1916838001178555611f90565b82800160010185558215611f90579182015b82811115611f90578251825591602001919060010190611f75565b50611f9c929150611fa0565b5090565b5b80821115611f9c5760008155600101611fa1565b6001600160e01b031981168114610a9057600080fd5b600060208284031215611fdd57600080fd5b813561131881611fb5565b60005b83811015612003578181015183820152602001611feb565b838111156111715750506000910152565b6000815180845261202c816020860160208601611fe8565b601f01601f19169290920160200192915050565b6020815260006113186020830184612014565b60006020828403121561206557600080fd5b5035919050565b6001600160a01b0381168114610a9057600080fd5b6000806040838503121561209457600080fd5b823561209f8161206c565b946020939093013593505050565b6000806000606084860312156120c257600080fd5b83356120cd8161206c565b925060208401356120dd8161206c565b929592945050506040919091013590565b634e487b7160e01b600052604160045260246000fd5b600067ffffffffffffffff8084111561211f5761211f6120ee565b604051601f8501601f19908116603f01168101908282118183101715612147576121476120ee565b8160405280935085815286868601111561216057600080fd5b858560208301376000602087830101525050509392505050565b60006020828403121561218c57600080fd5b813567ffffffffffffffff8111156121a357600080fd5b8201601f810184136121b457600080fd5b61142b84823560208401612104565b6000602082840312156121d557600080fd5b81356113188161206c565b600080600080606085870312156121f657600080fd5b84356122018161206c565b935060208501359250604085013567ffffffffffffffff8082111561222557600080fd5b818701915087601f83011261223957600080fd5b81358181111561224857600080fd5b8860208260051b850101111561225d57600080fd5b95989497505060200194505050565b6000806040838503121561227f57600080fd5b823561228a8161206c565b91506020830135801515811461229f57600080fd5b809150509250929050565b600080600080608085870312156122c057600080fd5b84356122cb8161206c565b935060208501356122db8161206c565b925060408501359150606085013567ffffffffffffffff8111156122fe57600080fd5b8501601f8101871361230f57600080fd5b61231e87823560208401612104565b91505092959194509250565b6000806040838503121561233d57600080fd5b82356123488161206c565b9150602083013561229f8161206c565b600181811c9082168061236c57607f821691505b6020821081141561238d57634e487b7160e01b600052602260045260246000fd5b50919050565b6020808252602e908201527f4552433732313a2063616c6c6572206973206e6f7420746f6b656e206f776e6560408201526d1c881b9bdc88185c1c1c9bdd995960921b606082015260800190565b6020808252601290820152712737ba1030b63637bbb2b21037b934b3b4b760711b604082015260600190565b634e487b7160e01b600052601160045260246000fd5b600082198211156124365761243661240d565b500190565b60008160001904831182151516156124555761245561240d565b500290565b600060001982141561246e5761246e61240d565b5060010190565b6000845160206124888285838a01611fe8565b85519184019161249b8184848a01611fe8565b8554920191600090600181811c90808316806124b857607f831692505b8583108114156124d657634e487b7160e01b85526022600452602485fd5b8080156124ea57600181146124fb57612528565b60ff19851688528388019550612528565b60008b81526020902060005b858110156125205781548a820152908401908801612507565b505083880195505b50939b9a5050505050505050505050565b60006020828403121561254b57600080fd5b81516113188161206c565b6000828210156125685761256861240d565b500390565b60208082526032908201527f4552433732313a207472616e7366657220746f206e6f6e20455243373231526560408201527131b2b4bb32b91034b6b83632b6b2b73a32b960711b606082015260800190565b634e487b7160e01b600052601260045260246000fd5b6000826125e4576125e46125bf565b500490565b6000826125f8576125f86125bf565b500690565b634e487b7160e01b600052603260045260246000fd5b6001600160a01b038581168252841660208201526040810183905260806060820181905260009061264690830184612014565b9695505050505050565b60006020828403121561266257600080fd5b815161131881611fb556fea26469706673582212200b1f8a86345928908337dd6ba351f0b5aa33c76f503d9c8224af77a65f5d838c64736f6c63430008090033697066733a2f2f516d50655346736b556942537a54576a4a4c556342347245626d733750767457356a4a525a6a38747646446d38452f68696464656e2e6a736f6e",
  "linkReferences": {},
  "deployedLinkReferences": {}
}