{
  "_format": "hh-sol-artifact-1",
  "contractName": "NeuralMixArt",
  "sourceName": "contracts/NeuralMixArt.sol",
  "abi": [
    {
      "inputs": [
        {
          "internalType": "string",
          "name": "uri",
          "type": "string"
        },
        {
          "internalType": "bytes32",
          "name": "merkleroot",
          "type": "bytes32"
        },
        {
          "internalType": "address",
          "name": "_proxyRegistryAddress",
          "type": "address"
        }
      ],
      "stateMutability": "nonpayable",
      "type": "constructor"
    },
    {
      "anonymous": false,
      "inputs": [
        {
          "indexed": true,
          "internalType": "address",
          "name": "owner",
          "type": "address"
        },
        {
          "indexed": true,
          "internalType": "address",
          "name": "approved",
          "type": "address"
        },
        {
          "indexed": true,
          "internalType": "uint256",
          "name": "tokenId",
          "type": "uint256"
        }
      ],
      "name": "Approval",
      "type": "event"
    },
    {
      "anonymous": false,
      "inputs": [
        {
          "indexed": true,
          "internalType": "address",
          "name": "owner",
          "type": "address"
        },
        {
          "indexed": true,
          "internalType": "address",
          "name": "operator",
          "type": "address"
        },
        {
          "indexed": false,
          "internalType": "bool",
          "name": "approved",
          "type": "bool"
        }
      ],
      "name": "ApprovalForAll",
      "type": "event"
    },
    {
      "anonymous": false,
      "inputs": [
        {
          "indexed": true,
          "internalType": "address",
          "name": "previousOwner",
          "type": "address"
        },
        {
          "indexed": true,
          "internalType": "address",
          "name": "newOwner",
          "type": "address"
        }
      ],
      "name": "OwnershipTransferred",
      "type": "event"
    },
    {
      "anonymous": false,
      "inputs": [
        {
          "indexed": true,
          "internalType": "address",
          "name": "from",
          "type": "address"
        },
        {
          "indexed": true,
          "internalType": "address",
          "name": "to",
          "type": "address"
        },
        {
          "indexed": true,
          "internalType": "uint256",
          "name": "tokenId",
          "type": "uint256"
        }
      ],
      "name": "Transfer",
      "type": "event"
    },
    {
      "inputs": [
        {
          "internalType": "address",
          "name": "",
          "type": "address"
        }
      ],
      "name": "_freeClaimed",
      "outputs": [
        {
          "internalType": "uint256",
          "name": "",
          "type": "uint256"
        }
      ],
      "stateMutability": "view",
      "type": "function"
    },
    {
      "inputs": [],
      "name": "_freePrice",
      "outputs": [
        {
          "internalType": "uint256",
          "name": "",
          "type": "uint256"
        }
      ],
      "stateMutability": "view",
      "type": "function"
    },
    {
      "inputs": [],
      "name": "_price",
      "outputs": [
        {
          "internalType": "uint256",
          "name": "",
          "type": "uint256"
        }
      ],
      "stateMutability": "view",
      "type": "function"
    },
    {
      "inputs": [
        {
          "internalType": "address",
          "name": "to",
          "type": "address"
        },
        {
          "internalType": "uint256",
          "name": "tokenId",
          "type": "uint256"
        }
      ],
      "name": "approve",
      "outputs": [],
      "stateMutability": "nonpayable",
      "type": "function"
    },
    {
      "inputs": [
        {
          "internalType": "address",
          "name": "owner",
          "type": "address"
        }
      ],
      "name": "balanceOf",
      "outputs": [
        {
          "internalType": "uint256",
          "name": "",
          "type": "uint256"
        }
      ],
      "stateMutability": "view",
      "type": "function"
    },
    {
      "inputs": [],
      "name": "baseExtension",
      "outputs": [
        {
          "internalType": "string",
          "name": "",
          "type": "string"
        }
      ],
      "stateMutability": "view",
      "type": "function"
    },
    {
      "inputs": [],
      "name": "baseURI",
      "outputs": [
        {
          "internalType": "string",
          "name": "",
          "type": "string"
        }
      ],
      "stateMutability": "view",
      "type": "function"
    },
    {
      "inputs": [
        {
          "internalType": "uint256",
          "name": "_amount",
          "type": "uint256"
        }
      ],
      "name": "freeMint",
      "outputs": [],
      "stateMutability": "payable",
      "type": "function"
    },
    {
      "inputs": [
        {
          "internalType": "uint256",
          "name": "tokenId",
          "type": "uint256"
        }
      ],
      "name": "getApproved",
      "outputs": [
        {
          "internalType": "address",
          "name": "",
          "type": "address"
        }
      ],
      "stateMutability": "view",
      "type": "function"
    },
    {
      "inputs": [
        {
          "internalType": "address",
          "name": "owner",
          "type": "address"
        },
        {
          "internalType": "address",
          "name": "operator",
          "type": "address"
        }
      ],
      "name": "isApprovedForAll",
      "outputs": [
        {
          "internalType": "bool",
          "name": "",
          "type": "bool"
        }
      ],
      "stateMutability": "view",
      "type": "function"
    },
    {
      "inputs": [],
      "name": "maxFreeSupply",
      "outputs": [
        {
          "internalType": "uint256",
          "name": "",
          "type": "uint256"
        }
      ],
      "stateMutability": "view",
      "type": "function"
    },
    {
      "inputs": [],
      "name": "maxMintAmount",
      "outputs": [
        {
          "internalType": "uint256",
          "name": "",
          "type": "uint256"
        }
      ],
      "stateMutability": "view",
      "type": "function"
    },
    {
      "inputs": [],
      "name": "maxSupply",
      "outputs": [
        {
          "internalType": "uint256",
          "name": "",
          "type": "uint256"
        }
      ],
      "stateMutability": "view",
      "type": "function"
    },
    {
      "inputs": [],
      "name": "name",
      "outputs": [
        {
          "internalType": "string",
          "name": "",
          "type": "string"
        }
      ],
      "stateMutability": "view",
      "type": "function"
    },
    {
      "inputs": [],
      "name": "notRevealedUri",
      "outputs": [
        {
          "internalType": "string",
          "name": "",
          "type": "string"
        }
      ],
      "stateMutability": "view",
      "type": "function"
    },
    {
      "inputs": [],
      "name": "owner",
      "outputs": [
        {
          "internalType": "address",
          "name": "",
          "type": "address"
        }
      ],
      "stateMutability": "view",
      "type": "function"
    },
    {
      "inputs": [
        {
          "internalType": "uint256",
          "name": "tokenId",
          "type": "uint256"
        }
      ],
      "name": "ownerOf",
      "outputs": [
        {
          "internalType": "address",
          "name": "",
          "type": "address"
        }
      ],
      "stateMutability": "view",
      "type": "function"
    },
    {
      "inputs": [],
      "name": "paused",
      "outputs": [
        {
          "internalType": "bool",
          "name": "",
          "type": "bool"
        }
      ],
      "stateMutability": "view",
      "type": "function"
    },
    {
      "inputs": [],
      "name": "presaleM",
      "outputs": [
        {
          "internalType": "bool",
          "name": "",
          "type": "bool"
        }
      ],
      "stateMutability": "view",
      "type": "function"
    },
    {
      "inputs": [],
      "name": "publicM",
      "outputs": [
        {
          "internalType": "bool",
          "name": "",
          "type": "bool"
        }
      ],
      "stateMutability": "view",
      "type": "function"
    },
    {
      "inputs": [
        {
          "internalType": "uint256",
          "name": "_amount",
          "type": "uint256"
        }
      ],
      "name": "publicSaleMint",
      "outputs": [],
      "stateMutability": "payable",
      "type": "function"
    },
    {
      "inputs": [],
      "name": "renounceOwnership",
      "outputs": [],
      "stateMutability": "nonpayable",
      "type": "function"
    },
    {
      "inputs": [],
      "name": "reveal",
      "outputs": [],
      "stateMutability": "nonpayable",
      "type": "function"
    },
    {
      "inputs": [],
      "name": "revealed",
      "outputs": [
        {
          "internalType": "bool",
          "name": "",
          "type": "bool"
        }
      ],
      "stateMutability": "view",
      "type": "function"
    },
    {
      "inputs": [],
      "name": "root",
      "outputs": [
        {
          "internalType": "bytes32",
          "name": "",
          "type": "bytes32"
        }
      ],
      "stateMutability": "view",
      "type": "function"
    },
    {
      "inputs": [
        {
          "internalType": "address",
          "name": "from",
          "type": "address"
        },
        {
          "internalType": "address",
          "name": "to",
          "type": "address"
        },
        {
          "internalType": "uint256",
          "name": "tokenId",
          "type": "uint256"
        }
      ],
      "name": "safeTransferFrom",
      "outputs": [],
      "stateMutability": "nonpayable",
      "type": "function"
    },
    {
      "inputs": [
        {
          "internalType": "address",
          "name": "from",
          "type": "address"
        },
        {
          "internalType": "address",
          "name": "to",
          "type": "address"
        },
        {
          "internalType": "uint256",
          "name": "tokenId",
          "type": "uint256"
        },
        {
          "internalType": "bytes",
          "name": "data",
          "type": "bytes"
        }
      ],
      "name": "safeTransferFrom",
      "outputs": [],
      "stateMutability": "nonpayable",
      "type": "function"
    },
    {
      "inputs": [
        {
          "internalType": "address",
          "name": "operator",
          "type": "address"
        },
        {
          "internalType": "bool",
          "name": "approved",
          "type": "bool"
        }
      ],
      "name": "setApprovalForAll",
      "outputs": [],
      "stateMutability": "nonpayable",
      "type": "function"
    },
    {
      "inputs": [
        {
          "internalType": "string",
          "name": "_newBaseExtension",
          "type": "string"
        }
      ],
      "name": "setBaseExtension",
      "outputs": [],
      "stateMutability": "nonpayable",
      "type": "function"
    },
    {
      "inputs": [
        {
          "internalType": "string",
          "name": "_tokenBaseURI",
          "type": "string"
        }
      ],
      "name": "setBaseURI",
      "outputs": [],
      "stateMutability": "nonpayable",
      "type": "function"
    },
    {
      "inputs": [
        {
          "internalType": "bytes32",
          "name": "merkleroot",
          "type": "bytes32"
        }
      ],
      "name": "setMerkleRoot",
      "outputs": [],
      "stateMutability": "nonpayable",
      "type": "function"
    },
    {
      "inputs": [
        {
          "internalType": "uint256",
          "name": "newPrice",
          "type": "uint256"
        }
      ],
      "name": "setMintPrice",
      "outputs": [],
      "stateMutability": "nonpayable",
      "type": "function"
    },
    {
      "inputs": [
        {
          "internalType": "string",
          "name": "_notRevealedURI",
          "type": "string"
        }
      ],
      "name": "setNotRevealedURI",
      "outputs": [],
      "stateMutability": "nonpayable",
      "type": "function"
    },
    {
      "inputs": [
        {
          "internalType": "uint256",
          "name": "newPresalePrice",
          "type": "uint256"
        }
      ],
      "name": "setPreSaleMintPrice",
      "outputs": [],
      "stateMutability": "nonpayable",
      "type": "function"
    },
    {
      "inputs": [
        {
          "internalType": "bytes4",
          "name": "interfaceId",
          "type": "bytes4"
        }
      ],
      "name": "supportsInterface",
      "outputs": [
        {
          "internalType": "bool",
          "name": "",
          "type": "bool"
        }
      ],
      "stateMutability": "view",
      "type": "function"
    },
    {
      "inputs": [],
      "name": "symbol",
      "outputs": [
        {
          "internalType": "string",
          "name": "",
          "type": "string"
        }
      ],
      "stateMutability": "view",
      "type": "function"
    },
    {
      "inputs": [],
      "name": "togglePause",
      "outputs": [],
      "stateMutability": "nonpayable",
      "type": "function"
    },
    {
      "inputs": [],
      "name": "togglePresale",
      "outputs": [],
      "stateMutability": "nonpayable",
      "type": "function"
    },
    {
      "inputs": [],
      "name": "togglePublicSale",
      "outputs": [],
      "stateMutability": "nonpayable",
      "type": "function"
    },
    {
      "inputs": [
        {
          "internalType": "uint256",
          "name": "tokenId",
          "type": "uint256"
        }
      ],
      "name": "tokenURI",
      "outputs": [
        {
          "internalType": "string",
          "name": "",
          "type": "string"
        }
      ],
      "stateMutability": "view",
      "type": "function"
    },
    {
      "inputs": [],
      "name": "totalSupply",
      "outputs": [
        {
          "internalType": "uint256",
          "name": "",
          "type": "uint256"
        }
      ],
      "stateMutability": "view",
      "type": "function"
    },
    {
      "inputs": [
        {
          "internalType": "address",
          "name": "from",
          "type": "address"
        },
        {
          "internalType": "address",
          "name": "to",
          "type": "address"
        },
        {
          "internalType": "uint256",
          "name": "tokenId",
          "type": "uint256"
        }
      ],
      "name": "transferFrom",
      "outputs": [],
      "stateMutability": "nonpayable",
      "type": "function"
    },
    {
      "inputs": [
        {
          "internalType": "address",
          "name": "newOwner",
          "type": "address"
        }
      ],
      "name": "transferOwnership",
      "outputs": [],
      "stateMutability": "nonpayable",
      "type": "function"
    },
    {
      "inputs": [],
      "name": "withdraw",
      "outputs": [],
      "stateMutability": "nonpayable",
      "type": "function"
    }
  ],
  "bytecode": "0x611388600a556105dc600b556101006040526041608081815290620029b260a03980516200003691600d9160209091019062000255565b5060408051808201909152600580825264173539b7b760d91b60209092019182526200006591600e9162000255565b50600f805463ffffffff191660011790556002601055600a60115566470de4df82000060135560006014553480156200009d57600080fd5b50604051620029f3380380620029f3833981016040819052620000c0916200032e565b604080518082018252600c81526b13995d5c985b135a5e105c9d60a21b6020808301918252835180850190945260038452624e4d4160e81b9084015281519192916200010f9160009162000255565b5080516200012590600190602084019062000255565b505050620001426200013c6200017b60201b60201c565b6200017f565b60016007556008829055600980546001600160a01b0319166001600160a01b0383161790556200017283620001d1565b50505062000466565b3390565b600680546001600160a01b038381166001600160a01b0319831681179093556040519116919082907f8be0079c531659141344cd1fd0a4f28419497f9722a3daafe3b4186f6b6457e090600090a35050565b620001db620001f4565b8051620001f090600c90602084019062000255565b5050565b6006546001600160a01b03163314620002535760405162461bcd60e51b815260206004820181905260248201527f4f776e61626c653a2063616c6c6572206973206e6f7420746865206f776e6572604482015260640160405180910390fd5b565b828054620002639062000429565b90600052602060002090601f016020900481019282620002875760008555620002d2565b82601f10620002a257805160ff1916838001178555620002d2565b82800160010185558215620002d2579182015b82811115620002d2578251825591602001919060010190620002b5565b50620002e0929150620002e4565b5090565b5b80821115620002e05760008155600101620002e5565b634e487b7160e01b600052604160045260246000fd5b80516001600160a01b03811681146200032957600080fd5b919050565b6000806000606084860312156200034457600080fd5b83516001600160401b03808211156200035c57600080fd5b818601915086601f8301126200037157600080fd5b815181811115620003865762000386620002fb565b604051601f8201601f19908116603f01168101908382118183101715620003b157620003b1620002fb565b81604052828152602093508984848701011115620003ce57600080fd5b600091505b82821015620003f25784820184015181830185015290830190620003d3565b82821115620004045760008484830101525b8097505050508086015193505050620004206040850162000311565b90509250925092565b600181811c908216806200043e57607f821691505b602082108114156200046057634e487b7160e01b600052602260045260246000fd5b50919050565b61253c80620004766000396000f3fe6080604052600436106102675760003560e01c80637857ee4211610144578063c4ae3168116100b6578063e222c7f91161007a578063e222c7f9146106b6578063e985e9c5146106cb578063ebf0c717146106eb578063f2c4ce1e14610701578063f2fde38b14610721578063f4a0a5281461074157600080fd5b8063c4ae316814610636578063c66828621461064b578063c87b56dd14610660578063d5abeb0114610680578063da3ef23f1461069657600080fd5b80639a943b3b116101085780639a943b3b14610597578063a22cb465146105ad578063a45063c0146105cd578063a475b5dd146105ee578063b3ab66b014610603578063b88d4fde1461061657600080fd5b80637857ee42146105045780637c928fe9146105315780637cb64759146105445780638da5cb5b1461056457806395d89b411461058257600080fd5b80633b9ee7e4116101dd57806355f804b3116101a157806355f804b3146104605780635c975abb146104805780636352211e1461049a5780636c0360eb146104ba57806370a08231146104cf578063715018a6146104ef57600080fd5b80633b9ee7e4146103d65780633ccfd60b146103f657806342842e0e1461040b578063475133341461042b578063518302271461044157600080fd5b80631798d58b1161022f5780631798d58b1461033257806318160ddd14610352578063235b6ea114610375578063239c70ae1461038b57806323b872dd146103a157806334393743146103c157600080fd5b806301ffc9a71461026c57806306fdde03146102a1578063081812fc146102c3578063081c8c44146102fb578063095ea7b314610310575b600080fd5b34801561027857600080fd5b5061028c610287366004611f1c565b610761565b60405190151581526020015b60405180910390f35b3480156102ad57600080fd5b506102b66107b3565b6040516102989190611f91565b3480156102cf57600080fd5b506102e36102de366004611fa4565b610845565b6040516001600160a01b039091168152602001610298565b34801561030757600080fd5b506102b661086c565b34801561031c57600080fd5b5061033061032b366004611fd2565b6108fa565b005b34801561033e57600080fd5b50600f5461028c9062010000900460ff1681565b34801561035e57600080fd5b50610367610a15565b604051908152602001610298565b34801561038157600080fd5b5061036760135481565b34801561039757600080fd5b5061036760115481565b3480156103ad57600080fd5b506103306103bc366004611ffe565b610a25565b3480156103cd57600080fd5b50610330610a56565b3480156103e257600080fd5b506103306103f1366004611fa4565b610a7d565b34801561040257600080fd5b50610330610a8a565b34801561041757600080fd5b50610330610426366004611ffe565b610ab4565b34801561043757600080fd5b50610367600b5481565b34801561044d57600080fd5b50600f5461028c90610100900460ff1681565b34801561046c57600080fd5b5061033061047b3660046120cb565b610acf565b34801561048c57600080fd5b50600f5461028c9060ff1681565b3480156104a657600080fd5b506102e36104b5366004611fa4565b610aee565b3480156104c657600080fd5b506102b6610b4e565b3480156104db57600080fd5b506103676104ea366004612114565b610b5b565b3480156104fb57600080fd5b50610330610be1565b34801561051057600080fd5b5061036761051f366004612114565b60126020526000908152604090205481565b61033061053f366004611fa4565b610bf5565b34801561055057600080fd5b5061033061055f366004611fa4565b610e91565b34801561057057600080fd5b506006546001600160a01b03166102e3565b34801561058e57600080fd5b506102b6610e9e565b3480156105a357600080fd5b5061036760145481565b3480156105b957600080fd5b506103306105c8366004612131565b610ead565b3480156105d957600080fd5b50600f5461028c906301000000900460ff1681565b3480156105fa57600080fd5b50610330610eb8565b610330610611366004611fa4565b610ed1565b34801561062257600080fd5b5061033061063136600461216f565b61111f565b34801561064257600080fd5b50610330611157565b34801561065757600080fd5b506102b6611173565b34801561066c57600080fd5b506102b661067b366004611fa4565b611180565b34801561068c57600080fd5b50610367600a5481565b3480156106a257600080fd5b506103306106b13660046120cb565b6112ff565b3480156106c257600080fd5b5061033061131a565b3480156106d757600080fd5b5061028c6106e63660046121ef565b611343565b3480156106f757600080fd5b5061036760085481565b34801561070d57600080fd5b5061033061071c3660046120cb565b611413565b34801561072d57600080fd5b5061033061073c366004612114565b61142e565b34801561074d57600080fd5b5061033061075c366004611fa4565b6114a4565b60006001600160e01b031982166380ac58cd60e01b148061079257506001600160e01b03198216635b5e139f60e01b145b806107ad57506301ffc9a760e01b6001600160e01b03198316145b92915050565b6060600080546107c29061221d565b80601f01602080910402602001604051908101604052809291908181526020018280546107ee9061221d565b801561083b5780601f106108105761010080835404028352916020019161083b565b820191906000526020600020905b81548152906001019060200180831161081e57829003601f168201915b5050505050905090565b6000610850826114b1565b506000908152600460205260409020546001600160a01b031690565b600d80546108799061221d565b80601f01602080910402602001604051908101604052809291908181526020018280546108a59061221d565b80156108f25780601f106108c7576101008083540402835291602001916108f2565b820191906000526020600020905b8154815290600101906020018083116108d557829003601f168201915b505050505081565b600061090582610aee565b9050806001600160a01b0316836001600160a01b031614156109785760405162461bcd60e51b815260206004820152602160248201527f4552433732313a20617070726f76616c20746f2063757272656e74206f776e656044820152603960f91b60648201526084015b60405180910390fd5b336001600160a01b038216148061099457506109948133611343565b610a065760405162461bcd60e51b815260206004820152603e60248201527f4552433732313a20617070726f76652063616c6c6572206973206e6f7420746f60448201527f6b656e206f776e6572206e6f7220617070726f76656420666f7220616c6c0000606482015260840161096f565b610a108383611510565b505050565b6000610a2060155490565b905090565b610a2f338261157e565b610a4b5760405162461bcd60e51b815260040161096f90612258565b610a108383836115dc565b610a5e611778565b600f805462ff0000198116620100009182900460ff1615909102179055565b610a85611778565b601455565b610a92611778565b47610ab17317411a22029fdead32bdff0788350725d426a322826117d2565b50565b610a108383836040518060200160405280600081525061111f565b610ad7611778565b8051610aea90600c906020840190611e6d565b5050565b6000818152600260205260408120546001600160a01b0316806107ad5760405162461bcd60e51b8152602060048201526018602482015277115490cdcc8c4e881a5b9d985b1a59081d1bdad95b88125160421b604482015260640161096f565b600c80546108799061221d565b60006001600160a01b038216610bc55760405162461bcd60e51b815260206004820152602960248201527f4552433732313a2061646472657373207a65726f206973206e6f7420612076616044820152683634b21037bbb732b960b91b606482015260840161096f565b506001600160a01b031660009081526003602052604090205490565b610be9611778565b610bf360006118eb565b565b333214610c395760405162461bcd60e51b81526020600482015260126024820152712737ba1030b63637bbb2b21037b934b3b4b760711b604482015260640161096f565b600f5462010000900460ff16610c825760405162461bcd60e51b815260206004820152600e60248201526d283932b9b0b6329034b99027a32360911b604482015260640161096f565b600f5460ff1615610cca5760405162461bcd60e51b815260206004820152601260248201527110dbdb9d1c9858dd081a5cc81c185d5cd95960721b604482015260640161096f565b601054811115610d1c5760405162461bcd60e51b815260206004820152601d60248201527f596f752063616e2774206d696e7420736f206d75636820746f6b656e73000000604482015260640161096f565b60105433600090815260126020526040902054610d3a9083906122bc565b1115610d885760405162461bcd60e51b815260206004820152601d60248201527f596f752063616e2774206d696e7420736f206d75636820746f6b656e73000000604482015260640161096f565b6000610d9360155490565b600b54909150610da383836122bc565b1115610df15760405162461bcd60e51b815260206004820152601b60248201527f4d61782070726573616c6520737570706c792065786365656465640000000000604482015260640161096f565b3482601454610e0091906122d4565b1115610e475760405162461bcd60e51b8152602060048201526016602482015275139bdd08195b9bdd59da08195d1a195c9cc81cd95b9d60521b604482015260640161096f565b3360009081526012602052604081208054849290610e669084906122bc565b90915550600090505b82811015610a1057610e7f61193d565b80610e89816122f3565b915050610e6f565b610e99611778565b600855565b6060600180546107c29061221d565b610aea3383836119c2565b610ec0611778565b600f805461ff001916610100179055565b333214610f155760405162461bcd60e51b81526020600482015260126024820152712737ba1030b63637bbb2b21037b934b3b4b760711b604482015260640161096f565b600f546301000000900460ff16610f625760405162461bcd60e51b8152602060048201526011602482015270283ab13634b1a9b0b6329034b99027a32360791b604482015260640161096f565b600f5460ff1615610faa5760405162461bcd60e51b815260206004820152601260248201527110dbdb9d1c9858dd081a5cc81c185d5cd95960721b604482015260640161096f565b60008111610fe85760405162461bcd60e51b815260206004820152600b60248201526a16995c9bc8185b5bdd5b9d60aa1b604482015260640161096f565b6011548111156110455760405162461bcd60e51b815260206004820152602260248201527f596f752063616e2774206d696e74206d6f7265207468656e20313020706572206044820152610e8f60f31b606482015260840161096f565b600061105060155490565b600a5490915061106083836122bc565b11156110a45760405162461bcd60e51b815260206004820152601360248201527213585e081cdd5c1c1b1e48195e18d959591959606a1b604482015260640161096f565b34826013546110b391906122d4565b11156110fa5760405162461bcd60e51b8152602060048201526016602482015275139bdd08195b9bdd59da08195d1a195c9cc81cd95b9d60521b604482015260640161096f565b60005b82811015610a105761110d61193d565b80611117816122f3565b9150506110fd565b611129338361157e565b6111455760405162461bcd60e51b815260040161096f90612258565b61115184848484611a91565b50505050565b61115f611778565b600f805460ff19811660ff90911615179055565b600e80546108799061221d565b6000818152600260205260409020546060906001600160a01b03166111ff5760405162461bcd60e51b815260206004820152602f60248201527f4552433732314d657461646174613a2055524920717565727920666f72206e6f60448201526e3732bc34b9ba32b73a103a37b5b2b760891b606482015260840161096f565b600f54610100900460ff166112a057600d805461121b9061221d565b80601f01602080910402602001604051908101604052809291908181526020018280546112479061221d565b80156112945780601f1061126957610100808354040283529160200191611294565b820191906000526020600020905b81548152906001019060200180831161127757829003601f168201915b50505050509050919050565b60006112aa611ac4565b905060008151116112ca57604051806020016040528060008152506112f8565b806112d484611ad3565b600e6040516020016112e89392919061230e565b6040516020818303038152906040525b9392505050565b611307611778565b8051610aea90600e906020840190611e6d565b611322611778565b600f805463ff00000019811663010000009182900460ff1615909102179055565b60095460405163c455279160e01b81526001600160a01b03848116600483015260009281169190841690829063c45527919060240160206040518083038186803b15801561139057600080fd5b505afa1580156113a4573d6000803e3d6000fd5b505050506040513d601f19601f820116820180604052508101906113c891906123d2565b6001600160a01b031614156113e15760019150506107ad565b6001600160a01b0380851660009081526005602090815260408083209387168352929052205460ff165b949350505050565b61141b611778565b8051610aea90600d906020840190611e6d565b611436611778565b6001600160a01b03811661149b5760405162461bcd60e51b815260206004820152602660248201527f4f776e61626c653a206e6577206f776e657220697320746865207a65726f206160448201526564647265737360d01b606482015260840161096f565b610ab1816118eb565b6114ac611778565b601355565b6000818152600260205260409020546001600160a01b0316610ab15760405162461bcd60e51b8152602060048201526018602482015277115490cdcc8c4e881a5b9d985b1a59081d1bdad95b88125160421b604482015260640161096f565b600081815260046020526040902080546001600160a01b0319166001600160a01b038416908117909155819061154582610aee565b6001600160a01b03167f8c5be1e5ebec7d5bd14f71427d1e84f3dd0314c0f7b2291e5b200ac8c7c3b92560405160405180910390a45050565b60008061158a83610aee565b9050806001600160a01b0316846001600160a01b031614806115b157506115b18185611343565b8061140b5750836001600160a01b03166115ca84610845565b6001600160a01b031614949350505050565b826001600160a01b03166115ef82610aee565b6001600160a01b0316146116535760405162461bcd60e51b815260206004820152602560248201527f4552433732313a207472616e736665722066726f6d20696e636f72726563742060448201526437bbb732b960d91b606482015260840161096f565b6001600160a01b0382166116b55760405162461bcd60e51b8152602060048201526024808201527f4552433732313a207472616e7366657220746f20746865207a65726f206164646044820152637265737360e01b606482015260840161096f565b6116c0600082611510565b6001600160a01b03831660009081526003602052604081208054600192906116e99084906123ef565b90915550506001600160a01b03821660009081526003602052604081208054600192906117179084906122bc565b909155505060008181526002602052604080822080546001600160a01b0319166001600160a01b0386811691821790925591518493918716917fddf252ad1be2c89b69c2b068fc378daa952ba7f163c4a11628f55a4df523b3ef91a4505050565b6006546001600160a01b03163314610bf35760405162461bcd60e51b815260206004820181905260248201527f4f776e61626c653a2063616c6c6572206973206e6f7420746865206f776e6572604482015260640161096f565b804710156118225760405162461bcd60e51b815260206004820152601d60248201527f416464726573733a20696e73756666696369656e742062616c616e6365000000604482015260640161096f565b6000826001600160a01b03168260405160006040518083038185875af1925050503d806000811461186f576040519150601f19603f3d011682016040523d82523d6000602084013e611874565b606091505b5050905080610a105760405162461bcd60e51b815260206004820152603a60248201527f416464726573733a20756e61626c6520746f2073656e642076616c75652c207260448201527f6563697069656e74206d61792068617665207265766572746564000000000000606482015260840161096f565b600680546001600160a01b038381166001600160a01b0319831681179093556040519116919082907f8be0079c531659141344cd1fd0a4f28419497f9722a3daafe3b4186f6b6457e090600090a35050565b600260075414156119905760405162461bcd60e51b815260206004820152601f60248201527f5265656e7472616e637947756172643a207265656e7472616e742063616c6c00604482015260640161096f565b60026007556119a3601580546001019055565b60006119ae60155490565b90506119ba3382611bd1565b506001600755565b816001600160a01b0316836001600160a01b03161415611a245760405162461bcd60e51b815260206004820152601960248201527f4552433732313a20617070726f766520746f2063616c6c657200000000000000604482015260640161096f565b6001600160a01b03838116600081815260056020908152604080832094871680845294825291829020805460ff191686151590811790915591519182527f17307eab39ab6107e8899845ad3d59bd9653f200f220920489ca2b5937696c31910160405180910390a3505050565b611a9c8484846115dc565b611aa884848484611beb565b6111515760405162461bcd60e51b815260040161096f90612406565b6060600c80546107c29061221d565b606081611af75750506040805180820190915260018152600360fc1b602082015290565b8160005b8115611b215780611b0b816122f3565b9150611b1a9050600a8361246e565b9150611afb565b60008167ffffffffffffffff811115611b3c57611b3c61203f565b6040519080825280601f01601f191660200182016040528015611b66576020820181803683370190505b5090505b841561140b57611b7b6001836123ef565b9150611b88600a86612482565b611b939060306122bc565b60f81b818381518110611ba857611ba8612496565b60200101906001600160f81b031916908160001a905350611bca600a8661246e565b9450611b6a565b610aea828260405180602001604052806000815250611cf8565b60006001600160a01b0384163b15611ced57604051630a85bd0160e11b81526001600160a01b0385169063150b7a0290611c2f9033908990889088906004016124ac565b602060405180830381600087803b158015611c4957600080fd5b505af1925050508015611c79575060408051601f3d908101601f19168201909252611c76918101906124e9565b60015b611cd3573d808015611ca7576040519150601f19603f3d011682016040523d82523d6000602084013e611cac565b606091505b508051611ccb5760405162461bcd60e51b815260040161096f90612406565b805181602001fd5b6001600160e01b031916630a85bd0160e11b14905061140b565b506001949350505050565b611d028383611d2b565b611d0f6000848484611beb565b610a105760405162461bcd60e51b815260040161096f90612406565b6001600160a01b038216611d815760405162461bcd60e51b815260206004820181905260248201527f4552433732313a206d696e7420746f20746865207a65726f2061646472657373604482015260640161096f565b6000818152600260205260409020546001600160a01b031615611de65760405162461bcd60e51b815260206004820152601c60248201527f4552433732313a20746f6b656e20616c7265616479206d696e74656400000000604482015260640161096f565b6001600160a01b0382166000908152600360205260408120805460019290611e0f9084906122bc565b909155505060008181526002602052604080822080546001600160a01b0319166001600160a01b03861690811790915590518392907fddf252ad1be2c89b69c2b068fc378daa952ba7f163c4a11628f55a4df523b3ef908290a45050565b828054611e799061221d565b90600052602060002090601f016020900481019282611e9b5760008555611ee1565b82601f10611eb457805160ff1916838001178555611ee1565b82800160010185558215611ee1579182015b82811115611ee1578251825591602001919060010190611ec6565b50611eed929150611ef1565b5090565b5b80821115611eed5760008155600101611ef2565b6001600160e01b031981168114610ab157600080fd5b600060208284031215611f2e57600080fd5b81356112f881611f06565b60005b83811015611f54578181015183820152602001611f3c565b838111156111515750506000910152565b60008151808452611f7d816020860160208601611f39565b601f01601f19169290920160200192915050565b6020815260006112f86020830184611f65565b600060208284031215611fb657600080fd5b5035919050565b6001600160a01b0381168114610ab157600080fd5b60008060408385031215611fe557600080fd5b8235611ff081611fbd565b946020939093013593505050565b60008060006060848603121561201357600080fd5b833561201e81611fbd565b9250602084013561202e81611fbd565b929592945050506040919091013590565b634e487b7160e01b600052604160045260246000fd5b600067ffffffffffffffff808411156120705761207061203f565b604051601f8501601f19908116603f011681019082821181831017156120985761209861203f565b816040528093508581528686860111156120b157600080fd5b858560208301376000602087830101525050509392505050565b6000602082840312156120dd57600080fd5b813567ffffffffffffffff8111156120f457600080fd5b8201601f8101841361210557600080fd5b61140b84823560208401612055565b60006020828403121561212657600080fd5b81356112f881611fbd565b6000806040838503121561214457600080fd5b823561214f81611fbd565b91506020830135801515811461216457600080fd5b809150509250929050565b6000806000806080858703121561218557600080fd5b843561219081611fbd565b935060208501356121a081611fbd565b925060408501359150606085013567ffffffffffffffff8111156121c357600080fd5b8501601f810187136121d457600080fd5b6121e387823560208401612055565b91505092959194509250565b6000806040838503121561220257600080fd5b823561220d81611fbd565b9150602083013561216481611fbd565b600181811c9082168061223157607f821691505b6020821081141561225257634e487b7160e01b600052602260045260246000fd5b50919050565b6020808252602e908201527f4552433732313a2063616c6c6572206973206e6f7420746f6b656e206f776e6560408201526d1c881b9bdc88185c1c1c9bdd995960921b606082015260800190565b634e487b7160e01b600052601160045260246000fd5b600082198211156122cf576122cf6122a6565b500190565b60008160001904831182151516156122ee576122ee6122a6565b500290565b6000600019821415612307576123076122a6565b5060010190565b6000845160206123218285838a01611f39565b8551918401916123348184848a01611f39565b8554920191600090600181811c908083168061235157607f831692505b85831081141561236f57634e487b7160e01b85526022600452602485fd5b8080156123835760018114612394576123c1565b60ff198516885283880195506123c1565b60008b81526020902060005b858110156123b95781548a8201529084019088016123a0565b505083880195505b50939b9a5050505050505050505050565b6000602082840312156123e457600080fd5b81516112f881611fbd565b600082821015612401576124016122a6565b500390565b60208082526032908201527f4552433732313a207472616e7366657220746f206e6f6e20455243373231526560408201527131b2b4bb32b91034b6b83632b6b2b73a32b960711b606082015260800190565b634e487b7160e01b600052601260045260246000fd5b60008261247d5761247d612458565b500490565b60008261249157612491612458565b500690565b634e487b7160e01b600052603260045260246000fd5b6001600160a01b03858116825284166020820152604081018390526080606082018190526000906124df90830184611f65565b9695505050505050565b6000602082840312156124fb57600080fd5b81516112f881611f0656fea2646970667358221220098a74833532ec2a2b0c05357f4cc04cb467e4f3d39736136f958d04f84e42f164736f6c63430008090033697066733a2f2f516d5547766654324761744734693341756f3359513255594a666b69705172556a53395058797647766d414a374e2f68696464656e2e6a736f6e",
  "linkReferences": {},
  "deployedLinkReferences": {}
}