{
  "_format": "hh-sol-artifact-1",
  "contractName": "NeuralMixArt",
  "sourceName": "contracts/NeuralMixArt.sol",
  "abi": [
    {
      "inputs": [
        {
          "internalType": "string",
          "name": "uri",
          "type": "string"
        },
        {
          "internalType": "bytes32",
          "name": "merkleroot",
          "type": "bytes32"
        },
        {
          "internalType": "address",
          "name": "_proxyRegistryAddress",
          "type": "address"
        }
      ],
      "stateMutability": "nonpayable",
      "type": "constructor"
    },
    {
      "anonymous": false,
      "inputs": [
        {
          "indexed": true,
          "internalType": "address",
          "name": "owner",
          "type": "address"
        },
        {
          "indexed": true,
          "internalType": "address",
          "name": "approved",
          "type": "address"
        },
        {
          "indexed": true,
          "internalType": "uint256",
          "name": "tokenId",
          "type": "uint256"
        }
      ],
      "name": "Approval",
      "type": "event"
    },
    {
      "anonymous": false,
      "inputs": [
        {
          "indexed": true,
          "internalType": "address",
          "name": "owner",
          "type": "address"
        },
        {
          "indexed": true,
          "internalType": "address",
          "name": "operator",
          "type": "address"
        },
        {
          "indexed": false,
          "internalType": "bool",
          "name": "approved",
          "type": "bool"
        }
      ],
      "name": "ApprovalForAll",
      "type": "event"
    },
    {
      "anonymous": false,
      "inputs": [
        {
          "indexed": true,
          "internalType": "address",
          "name": "previousOwner",
          "type": "address"
        },
        {
          "indexed": true,
          "internalType": "address",
          "name": "newOwner",
          "type": "address"
        }
      ],
      "name": "OwnershipTransferred",
      "type": "event"
    },
    {
      "anonymous": false,
      "inputs": [
        {
          "indexed": true,
          "internalType": "address",
          "name": "from",
          "type": "address"
        },
        {
          "indexed": true,
          "internalType": "address",
          "name": "to",
          "type": "address"
        },
        {
          "indexed": true,
          "internalType": "uint256",
          "name": "tokenId",
          "type": "uint256"
        }
      ],
      "name": "Transfer",
      "type": "event"
    },
    {
      "inputs": [
        {
          "internalType": "address",
          "name": "",
          "type": "address"
        }
      ],
      "name": "_freeClaimed",
      "outputs": [
        {
          "internalType": "uint256",
          "name": "",
          "type": "uint256"
        }
      ],
      "stateMutability": "view",
      "type": "function"
    },
    {
      "inputs": [],
      "name": "_freePrice",
      "outputs": [
        {
          "internalType": "uint256",
          "name": "",
          "type": "uint256"
        }
      ],
      "stateMutability": "view",
      "type": "function"
    },
    {
      "inputs": [],
      "name": "_price",
      "outputs": [
        {
          "internalType": "uint256",
          "name": "",
          "type": "uint256"
        }
      ],
      "stateMutability": "view",
      "type": "function"
    },
    {
      "inputs": [
        {
          "internalType": "address",
          "name": "to",
          "type": "address"
        },
        {
          "internalType": "uint256",
          "name": "tokenId",
          "type": "uint256"
        }
      ],
      "name": "approve",
      "outputs": [],
      "stateMutability": "nonpayable",
      "type": "function"
    },
    {
      "inputs": [
        {
          "internalType": "address",
          "name": "owner",
          "type": "address"
        }
      ],
      "name": "balanceOf",
      "outputs": [
        {
          "internalType": "uint256",
          "name": "",
          "type": "uint256"
        }
      ],
      "stateMutability": "view",
      "type": "function"
    },
    {
      "inputs": [],
      "name": "baseExtension",
      "outputs": [
        {
          "internalType": "string",
          "name": "",
          "type": "string"
        }
      ],
      "stateMutability": "view",
      "type": "function"
    },
    {
      "inputs": [],
      "name": "baseURI",
      "outputs": [
        {
          "internalType": "string",
          "name": "",
          "type": "string"
        }
      ],
      "stateMutability": "view",
      "type": "function"
    },
    {
      "inputs": [
        {
          "internalType": "uint256",
          "name": "_amount",
          "type": "uint256"
        }
      ],
      "name": "freeMint",
      "outputs": [],
      "stateMutability": "payable",
      "type": "function"
    },
    {
      "inputs": [
        {
          "internalType": "uint256",
          "name": "tokenId",
          "type": "uint256"
        }
      ],
      "name": "getApproved",
      "outputs": [
        {
          "internalType": "address",
          "name": "",
          "type": "address"
        }
      ],
      "stateMutability": "view",
      "type": "function"
    },
    {
      "inputs": [
        {
          "internalType": "address",
          "name": "owner",
          "type": "address"
        },
        {
          "internalType": "address",
          "name": "operator",
          "type": "address"
        }
      ],
      "name": "isApprovedForAll",
      "outputs": [
        {
          "internalType": "bool",
          "name": "",
          "type": "bool"
        }
      ],
      "stateMutability": "view",
      "type": "function"
    },
    {
      "inputs": [],
      "name": "maxFreeSupply",
      "outputs": [
        {
          "internalType": "uint256",
          "name": "",
          "type": "uint256"
        }
      ],
      "stateMutability": "view",
      "type": "function"
    },
    {
      "inputs": [],
      "name": "maxMintAmount",
      "outputs": [
        {
          "internalType": "uint256",
          "name": "",
          "type": "uint256"
        }
      ],
      "stateMutability": "view",
      "type": "function"
    },
    {
      "inputs": [],
      "name": "maxSupply",
      "outputs": [
        {
          "internalType": "uint256",
          "name": "",
          "type": "uint256"
        }
      ],
      "stateMutability": "view",
      "type": "function"
    },
    {
      "inputs": [],
      "name": "name",
      "outputs": [
        {
          "internalType": "string",
          "name": "",
          "type": "string"
        }
      ],
      "stateMutability": "view",
      "type": "function"
    },
    {
      "inputs": [],
      "name": "notRevealedUri",
      "outputs": [
        {
          "internalType": "string",
          "name": "",
          "type": "string"
        }
      ],
      "stateMutability": "view",
      "type": "function"
    },
    {
      "inputs": [],
      "name": "owner",
      "outputs": [
        {
          "internalType": "address",
          "name": "",
          "type": "address"
        }
      ],
      "stateMutability": "view",
      "type": "function"
    },
    {
      "inputs": [
        {
          "internalType": "uint256",
          "name": "tokenId",
          "type": "uint256"
        }
      ],
      "name": "ownerOf",
      "outputs": [
        {
          "internalType": "address",
          "name": "",
          "type": "address"
        }
      ],
      "stateMutability": "view",
      "type": "function"
    },
    {
      "inputs": [],
      "name": "paused",
      "outputs": [
        {
          "internalType": "bool",
          "name": "",
          "type": "bool"
        }
      ],
      "stateMutability": "view",
      "type": "function"
    },
    {
      "inputs": [],
      "name": "presaleM",
      "outputs": [
        {
          "internalType": "bool",
          "name": "",
          "type": "bool"
        }
      ],
      "stateMutability": "view",
      "type": "function"
    },
    {
      "inputs": [],
      "name": "publicM",
      "outputs": [
        {
          "internalType": "bool",
          "name": "",
          "type": "bool"
        }
      ],
      "stateMutability": "view",
      "type": "function"
    },
    {
      "inputs": [
        {
          "internalType": "uint256",
          "name": "_amount",
          "type": "uint256"
        }
      ],
      "name": "publicSaleMint",
      "outputs": [],
      "stateMutability": "payable",
      "type": "function"
    },
    {
      "inputs": [],
      "name": "renounceOwnership",
      "outputs": [],
      "stateMutability": "nonpayable",
      "type": "function"
    },
    {
      "inputs": [],
      "name": "reveal",
      "outputs": [],
      "stateMutability": "nonpayable",
      "type": "function"
    },
    {
      "inputs": [],
      "name": "revealed",
      "outputs": [
        {
          "internalType": "bool",
          "name": "",
          "type": "bool"
        }
      ],
      "stateMutability": "view",
      "type": "function"
    },
    {
      "inputs": [],
      "name": "root",
      "outputs": [
        {
          "internalType": "bytes32",
          "name": "",
          "type": "bytes32"
        }
      ],
      "stateMutability": "view",
      "type": "function"
    },
    {
      "inputs": [
        {
          "internalType": "address",
          "name": "from",
          "type": "address"
        },
        {
          "internalType": "address",
          "name": "to",
          "type": "address"
        },
        {
          "internalType": "uint256",
          "name": "tokenId",
          "type": "uint256"
        }
      ],
      "name": "safeTransferFrom",
      "outputs": [],
      "stateMutability": "nonpayable",
      "type": "function"
    },
    {
      "inputs": [
        {
          "internalType": "address",
          "name": "from",
          "type": "address"
        },
        {
          "internalType": "address",
          "name": "to",
          "type": "address"
        },
        {
          "internalType": "uint256",
          "name": "tokenId",
          "type": "uint256"
        },
        {
          "internalType": "bytes",
          "name": "data",
          "type": "bytes"
        }
      ],
      "name": "safeTransferFrom",
      "outputs": [],
      "stateMutability": "nonpayable",
      "type": "function"
    },
    {
      "inputs": [
        {
          "internalType": "address",
          "name": "operator",
          "type": "address"
        },
        {
          "internalType": "bool",
          "name": "approved",
          "type": "bool"
        }
      ],
      "name": "setApprovalForAll",
      "outputs": [],
      "stateMutability": "nonpayable",
      "type": "function"
    },
    {
      "inputs": [
        {
          "internalType": "string",
          "name": "_newBaseExtension",
          "type": "string"
        }
      ],
      "name": "setBaseExtension",
      "outputs": [],
      "stateMutability": "nonpayable",
      "type": "function"
    },
    {
      "inputs": [
        {
          "internalType": "string",
          "name": "_tokenBaseURI",
          "type": "string"
        }
      ],
      "name": "setBaseURI",
      "outputs": [],
      "stateMutability": "nonpayable",
      "type": "function"
    },
    {
      "inputs": [
        {
          "internalType": "bytes32",
          "name": "merkleroot",
          "type": "bytes32"
        }
      ],
      "name": "setMerkleRoot",
      "outputs": [],
      "stateMutability": "nonpayable",
      "type": "function"
    },
    {
      "inputs": [
        {
          "internalType": "uint256",
          "name": "newPrice",
          "type": "uint256"
        }
      ],
      "name": "setMintPrice",
      "outputs": [],
      "stateMutability": "nonpayable",
      "type": "function"
    },
    {
      "inputs": [
        {
          "internalType": "string",
          "name": "_notRevealedURI",
          "type": "string"
        }
      ],
      "name": "setNotRevealedURI",
      "outputs": [],
      "stateMutability": "nonpayable",
      "type": "function"
    },
    {
      "inputs": [
        {
          "internalType": "uint256",
          "name": "newPresalePrice",
          "type": "uint256"
        }
      ],
      "name": "setPreSaleMintPrice",
      "outputs": [],
      "stateMutability": "nonpayable",
      "type": "function"
    },
    {
      "inputs": [
        {
          "internalType": "bytes4",
          "name": "interfaceId",
          "type": "bytes4"
        }
      ],
      "name": "supportsInterface",
      "outputs": [
        {
          "internalType": "bool",
          "name": "",
          "type": "bool"
        }
      ],
      "stateMutability": "view",
      "type": "function"
    },
    {
      "inputs": [],
      "name": "symbol",
      "outputs": [
        {
          "internalType": "string",
          "name": "",
          "type": "string"
        }
      ],
      "stateMutability": "view",
      "type": "function"
    },
    {
      "inputs": [],
      "name": "togglePause",
      "outputs": [],
      "stateMutability": "nonpayable",
      "type": "function"
    },
    {
      "inputs": [],
      "name": "togglePresale",
      "outputs": [],
      "stateMutability": "nonpayable",
      "type": "function"
    },
    {
      "inputs": [],
      "name": "togglePublicSale",
      "outputs": [],
      "stateMutability": "nonpayable",
      "type": "function"
    },
    {
      "inputs": [
        {
          "internalType": "uint256",
          "name": "tokenId",
          "type": "uint256"
        }
      ],
      "name": "tokenURI",
      "outputs": [
        {
          "internalType": "string",
          "name": "",
          "type": "string"
        }
      ],
      "stateMutability": "view",
      "type": "function"
    },
    {
      "inputs": [],
      "name": "totalSupply",
      "outputs": [
        {
          "internalType": "uint256",
          "name": "",
          "type": "uint256"
        }
      ],
      "stateMutability": "view",
      "type": "function"
    },
    {
      "inputs": [
        {
          "internalType": "address",
          "name": "from",
          "type": "address"
        },
        {
          "internalType": "address",
          "name": "to",
          "type": "address"
        },
        {
          "internalType": "uint256",
          "name": "tokenId",
          "type": "uint256"
        }
      ],
      "name": "transferFrom",
      "outputs": [],
      "stateMutability": "nonpayable",
      "type": "function"
    },
    {
      "inputs": [
        {
          "internalType": "address",
          "name": "newOwner",
          "type": "address"
        }
      ],
      "name": "transferOwnership",
      "outputs": [],
      "stateMutability": "nonpayable",
      "type": "function"
    },
    {
      "inputs": [],
      "name": "withdraw",
      "outputs": [],
      "stateMutability": "nonpayable",
      "type": "function"
    }
  ],
  "bytecode": "0x6080604052611388600a556105dc600b5560405180608001604052806041815260200162004fb860419139600d90805190602001906200004192919062000428565b506040518060400160405280600581526020017f2e6a736f6e000000000000000000000000000000000000000000000000000000815250600e90805190602001906200008f92919062000428565b506001600f60006101000a81548160ff0219169083151502179055506000600f60016101000a81548160ff0219169083151502179055506000600f60026101000a81548160ff0219169083151502179055506000600f60036101000a81548160ff0219169083151502179055506002601055600a60115566470de4df82000060135560006014553480156200012357600080fd5b5060405162004ff938038062004ff9833981810160405281019062000149919062000715565b6040518060400160405280600c81526020017f4e657572616c4d697841727400000000000000000000000000000000000000008152506040518060400160405280600381526020017f4e4d4100000000000000000000000000000000000000000000000000000000008152508160009080519060200190620001cd92919062000428565b508060019080519060200190620001e692919062000428565b50505062000209620001fd6200027360201b60201c565b6200027b60201b60201c565b60016007819055508160088190555080600960006101000a81548173ffffffffffffffffffffffffffffffffffffffff021916908373ffffffffffffffffffffffffffffffffffffffff1602179055506200026a836200034160201b60201c565b50505062000878565b600033905090565b6000600660009054906101000a900473ffffffffffffffffffffffffffffffffffffffff16905081600660006101000a81548173ffffffffffffffffffffffffffffffffffffffff021916908373ffffffffffffffffffffffffffffffffffffffff1602179055508173ffffffffffffffffffffffffffffffffffffffff168173ffffffffffffffffffffffffffffffffffffffff167f8be0079c531659141344cd1fd0a4f28419497f9722a3daafe3b4186f6b6457e060405160405180910390a35050565b620003516200036d60201b60201c565b80600c90805190602001906200036992919062000428565b5050565b6200037d6200027360201b60201c565b73ffffffffffffffffffffffffffffffffffffffff16620003a3620003fe60201b60201c565b73ffffffffffffffffffffffffffffffffffffffff1614620003fc576040517f08c379a0000000000000000000000000000000000000000000000000000000008152600401620003f390620007f1565b60405180910390fd5b565b6000600660009054906101000a900473ffffffffffffffffffffffffffffffffffffffff16905090565b828054620004369062000842565b90600052602060002090601f0160209004810192826200045a5760008555620004a6565b82601f106200047557805160ff1916838001178555620004a6565b82800160010185558215620004a6579182015b82811115620004a557825182559160200191906001019062000488565b5b509050620004b59190620004b9565b5090565b5b80821115620004d4576000816000905550600101620004ba565b5090565b6000604051905090565b600080fd5b600080fd5b600080fd5b600080fd5b6000601f19601f8301169050919050565b7f4e487b7100000000000000000000000000000000000000000000000000000000600052604160045260246000fd5b6200054182620004f6565b810181811067ffffffffffffffff8211171562000563576200056262000507565b5b80604052505050565b600062000578620004d8565b905062000586828262000536565b919050565b600067ffffffffffffffff821115620005a957620005a862000507565b5b620005b482620004f6565b9050602081019050919050565b60005b83811015620005e1578082015181840152602081019050620005c4565b83811115620005f1576000848401525b50505050565b60006200060e62000608846200058b565b6200056c565b9050828152602081018484840111156200062d576200062c620004f1565b5b6200063a848285620005c1565b509392505050565b600082601f8301126200065a5762000659620004ec565b5b81516200066c848260208601620005f7565b91505092915050565b6000819050919050565b6200068a8162000675565b81146200069657600080fd5b50565b600081519050620006aa816200067f565b92915050565b600073ffffffffffffffffffffffffffffffffffffffff82169050919050565b6000620006dd82620006b0565b9050919050565b620006ef81620006d0565b8114620006fb57600080fd5b50565b6000815190506200070f81620006e4565b92915050565b600080600060608486031215620007315762000730620004e2565b5b600084015167ffffffffffffffff811115620007525762000751620004e7565b5b620007608682870162000642565b9350506020620007738682870162000699565b92505060406200078686828701620006fe565b9150509250925092565b600082825260208201905092915050565b7f4f776e61626c653a2063616c6c6572206973206e6f7420746865206f776e6572600082015250565b6000620007d960208362000790565b9150620007e682620007a1565b602082019050919050565b600060208201905081810360008301526200080c81620007ca565b9050919050565b7f4e487b7100000000000000000000000000000000000000000000000000000000600052602260045260246000fd5b600060028204905060018216806200085b57607f821691505b6020821081141562000872576200087162000813565b5b50919050565b61473080620008886000396000f3fe6080604052600436106102675760003560e01c80637857ee4211610144578063c4ae3168116100b6578063e222c7f91161007a578063e222c7f9146108a6578063e985e9c5146108bd578063ebf0c717146108fa578063f2c4ce1e14610925578063f2fde38b1461094e578063f4a0a5281461097757610267565b8063c4ae3168146107d3578063c6682862146107ea578063c87b56dd14610815578063d5abeb0114610852578063da3ef23f1461087d57610267565b80639a943b3b116101085780639a943b3b146106f8578063a22cb46514610723578063a45063c01461074c578063a475b5dd14610777578063b3ab66b01461078e578063b88d4fde146107aa57610267565b80637857ee42146106205780637c928fe91461065d5780637cb64759146106795780638da5cb5b146106a257806395d89b41146106cd57610267565b80633b9ee7e4116101dd57806355f804b3116101a157806355f804b3146105105780635c975abb146105395780636352211e146105645780636c0360eb146105a157806370a08231146105cc578063715018a61461060957610267565b80633b9ee7e4146104515780633ccfd60b1461047a57806342842e0e1461049157806347513334146104ba57806351830227146104e557610267565b80631798d58b1161022f5780631798d58b1461036557806318160ddd14610390578063235b6ea1146103bb578063239c70ae146103e657806323b872dd14610411578063343937431461043a57610267565b806301ffc9a71461026c57806306fdde03146102a9578063081812fc146102d4578063081c8c4414610311578063095ea7b31461033c575b600080fd5b34801561027857600080fd5b50610293600480360381019061028e9190612d82565b6109a0565b6040516102a09190612dca565b60405180910390f35b3480156102b557600080fd5b506102be610a82565b6040516102cb9190612e7e565b60405180910390f35b3480156102e057600080fd5b506102fb60048036038101906102f69190612ed6565b610b14565b6040516103089190612f44565b60405180910390f35b34801561031d57600080fd5b50610326610b5a565b6040516103339190612e7e565b60405180910390f35b34801561034857600080fd5b50610363600480360381019061035e9190612f8b565b610be8565b005b34801561037157600080fd5b5061037a610d00565b6040516103879190612dca565b60405180910390f35b34801561039c57600080fd5b506103a5610d13565b6040516103b29190612fda565b60405180910390f35b3480156103c757600080fd5b506103d0610d24565b6040516103dd9190612fda565b60405180910390f35b3480156103f257600080fd5b506103fb610d2a565b6040516104089190612fda565b60405180910390f35b34801561041d57600080fd5b5061043860048036038101906104339190612ff5565b610d30565b005b34801561044657600080fd5b5061044f610d90565b005b34801561045d57600080fd5b5061047860048036038101906104739190612ed6565b610dc4565b005b34801561048657600080fd5b5061048f610e1a565b005b34801561049d57600080fd5b506104b860048036038101906104b39190612ff5565b610e48565b005b3480156104c657600080fd5b506104cf610e68565b6040516104dc9190612fda565b60405180910390f35b3480156104f157600080fd5b506104fa610e6e565b6040516105079190612dca565b60405180910390f35b34801561051c57600080fd5b506105376004803603810190610532919061317d565b610e81565b005b34801561054557600080fd5b5061054e610ea3565b60405161055b9190612dca565b60405180910390f35b34801561057057600080fd5b5061058b60048036038101906105869190612ed6565b610eb6565b6040516105989190612f44565b60405180910390f35b3480156105ad57600080fd5b506105b6610f68565b6040516105c39190612e7e565b60405180910390f35b3480156105d857600080fd5b506105f360048036038101906105ee91906131c6565b610ff6565b6040516106009190612fda565b60405180910390f35b34801561061557600080fd5b5061061e6110ae565b005b34801561062c57600080fd5b50610647600480360381019061064291906131c6565b6110c2565b6040516106549190612fda565b60405180910390f35b61067760048036038101906106729190612ed6565b6110da565b005b34801561068557600080fd5b506106a0600480360381019061069b9190613229565b6113ea565b005b3480156106ae57600080fd5b506106b76113fc565b6040516106c49190612f44565b60405180910390f35b3480156106d957600080fd5b506106e2611426565b6040516106ef9190612e7e565b60405180910390f35b34801561070457600080fd5b5061070d6114b8565b60405161071a9190612fda565b60405180910390f35b34801561072f57600080fd5b5061074a60048036038101906107459190613282565b6114be565b005b34801561075857600080fd5b506107616114d4565b60405161076e9190612dca565b60405180910390f35b34801561078357600080fd5b5061078c6114e7565b005b6107a860048036038101906107a39190612ed6565b61150c565b005b3480156107b657600080fd5b506107d160048036038101906107cc9190613363565b61177a565b005b3480156107df57600080fd5b506107e86117dc565b005b3480156107f657600080fd5b506107ff611810565b60405161080c9190612e7e565b60405180910390f35b34801561082157600080fd5b5061083c60048036038101906108379190612ed6565b61189e565b6040516108499190612e7e565b60405180910390f35b34801561085e57600080fd5b506108676119f7565b6040516108749190612fda565b60405180910390f35b34801561088957600080fd5b506108a4600480360381019061089f919061317d565b6119fd565b005b3480156108b257600080fd5b506108bb611a1f565b005b3480156108c957600080fd5b506108e460048036038101906108df91906133e6565b611a53565b6040516108f19190612dca565b60405180910390f35b34801561090657600080fd5b5061090f611b55565b60405161091c9190613435565b60405180910390f35b34801561093157600080fd5b5061094c6004803603810190610947919061317d565b611b5b565b005b34801561095a57600080fd5b50610975600480360381019061097091906131c6565b611b7d565b005b34801561098357600080fd5b5061099e60048036038101906109999190612ed6565b611c01565b005b60007f80ac58cd000000000000000000000000000000000000000000000000000000007bffffffffffffffffffffffffffffffffffffffffffffffffffffffff1916827bffffffffffffffffffffffffffffffffffffffffffffffffffffffff19161480610a6b57507f5b5e139f000000000000000000000000000000000000000000000000000000007bffffffffffffffffffffffffffffffffffffffffffffffffffffffff1916827bffffffffffffffffffffffffffffffffffffffffffffffffffffffff1916145b80610a7b5750610a7a82611c57565b5b9050919050565b606060008054610a919061347f565b80601f0160208091040260200160405190810160405280929190818152602001828054610abd9061347f565b8015610b0a5780601f10610adf57610100808354040283529160200191610b0a565b820191906000526020600020905b815481529060010190602001808311610aed57829003601f168201915b5050505050905090565b6000610b1f82611cc1565b6004600083815260200190815260200160002060009054906101000a900473ffffffffffffffffffffffffffffffffffffffff169050919050565b600d8054610b679061347f565b80601f0160208091040260200160405190810160405280929190818152602001828054610b939061347f565b8015610be05780601f10610bb557610100808354040283529160200191610be0565b820191906000526020600020905b815481529060010190602001808311610bc357829003601f168201915b505050505081565b6000610bf382610eb6565b90508073ffffffffffffffffffffffffffffffffffffffff168373ffffffffffffffffffffffffffffffffffffffff161415610c64576040517f08c379a0000000000000000000000000000000000000000000000000000000008152600401610c5b90613523565b60405180910390fd5b8073ffffffffffffffffffffffffffffffffffffffff16610c83611d0c565b73ffffffffffffffffffffffffffffffffffffffff161480610cb25750610cb181610cac611d0c565b611a53565b5b610cf1576040517f08c379a0000000000000000000000000000000000000000000000000000000008152600401610ce8906135b5565b60405180910390fd5b610cfb8383611d14565b505050565b600f60029054906101000a900460ff1681565b6000610d1f6015611dcd565b905090565b60135481565b60115481565b610d41610d3b611d0c565b82611ddb565b610d80576040517f08c379a0000000000000000000000000000000000000000000000000000000008152600401610d7790613647565b60405180910390fd5b610d8b838383611e70565b505050565b610d986120d7565b600f60029054906101000a900460ff1615600f60026101000a81548160ff021916908315150217905550565b610dcc6120d7565b6000811015610e10576040517f08c379a0000000000000000000000000000000000000000000000000000000008152600401610e07906136d9565b60405180910390fd5b8060148190555050565b610e226120d7565b6000479050610e457317411a22029fdead32bdff0788350725d426a32282612155565b50565b610e638383836040518060200160405280600081525061177a565b505050565b600b5481565b600f60019054906101000a900460ff1681565b610e896120d7565b80600c9080519060200190610e9f929190612c73565b5050565b600f60009054906101000a900460ff1681565b6000806002600084815260200190815260200160002060009054906101000a900473ffffffffffffffffffffffffffffffffffffffff169050600073ffffffffffffffffffffffffffffffffffffffff168173ffffffffffffffffffffffffffffffffffffffff161415610f5f576040517f08c379a0000000000000000000000000000000000000000000000000000000008152600401610f5690613745565b60405180910390fd5b80915050919050565b600c8054610f759061347f565b80601f0160208091040260200160405190810160405280929190818152602001828054610fa19061347f565b8015610fee5780601f10610fc357610100808354040283529160200191610fee565b820191906000526020600020905b815481529060010190602001808311610fd157829003601f168201915b505050505081565b60008073ffffffffffffffffffffffffffffffffffffffff168273ffffffffffffffffffffffffffffffffffffffff161415611067576040517f08c379a000000000000000000000000000000000000000000000000000000000815260040161105e906137d7565b60405180910390fd5b600360008373ffffffffffffffffffffffffffffffffffffffff1673ffffffffffffffffffffffffffffffffffffffff168152602001908152602001600020549050919050565b6110b66120d7565b6110c06000612249565b565b60126020528060005260406000206000915090505481565b3273ffffffffffffffffffffffffffffffffffffffff163373ffffffffffffffffffffffffffffffffffffffff1614611148576040517f08c379a000000000000000000000000000000000000000000000000000000000815260040161113f90613843565b60405180910390fd5b600f60029054906101000a900460ff16611197576040517f08c379a000000000000000000000000000000000000000000000000000000000815260040161118e906138af565b60405180910390fd5b600f60009054906101000a900460ff16156111e7576040517f08c379a00000000000000000000000000000000000000000000000000000000081526004016111de9061391b565b60405180910390fd5b60105481111561122c576040517f08c379a000000000000000000000000000000000000000000000000000000000815260040161122390613987565b60405180910390fd5b60105481601260003373ffffffffffffffffffffffffffffffffffffffff1673ffffffffffffffffffffffffffffffffffffffff1681526020019081526020016000205461127a91906139d6565b11156112bb576040517f08c379a00000000000000000000000000000000000000000000000000000000081526004016112b290613987565b60405180910390fd5b60006112c76015611dcd565b9050600b5482826112d891906139d6565b1115611319576040517f08c379a000000000000000000000000000000000000000000000000000000000815260040161131090613a78565b60405180910390fd5b34826014546113289190613a98565b1115611369576040517f08c379a000000000000000000000000000000000000000000000000000000000815260040161136090613b3e565b60405180910390fd5b81601260003373ffffffffffffffffffffffffffffffffffffffff1673ffffffffffffffffffffffffffffffffffffffff16815260200190815260200160002060008282546113b891906139d6565b9250508190555060005b828110156113e5576113d261230f565b80806113dd90613b5e565b9150506113c2565b505050565b6113f26120d7565b8060088190555050565b6000600660009054906101000a900473ffffffffffffffffffffffffffffffffffffffff16905090565b6060600180546114359061347f565b80601f01602080910402602001604051908101604052809291908181526020018280546114619061347f565b80156114ae5780601f10611483576101008083540402835291602001916114ae565b820191906000526020600020905b81548152906001019060200180831161149157829003601f168201915b5050505050905090565b60145481565b6114d06114c9611d0c565b838361238a565b5050565b600f60039054906101000a900460ff1681565b6114ef6120d7565b6001600f60016101000a81548160ff021916908315150217905550565b3273ffffffffffffffffffffffffffffffffffffffff163373ffffffffffffffffffffffffffffffffffffffff161461157a576040517f08c379a000000000000000000000000000000000000000000000000000000000815260040161157190613843565b60405180910390fd5b600f60039054906101000a900460ff166115c9576040517f08c379a00000000000000000000000000000000000000000000000000000000081526004016115c090613bf3565b60405180910390fd5b600f60009054906101000a900460ff1615611619576040517f08c379a00000000000000000000000000000000000000000000000000000000081526004016116109061391b565b60405180910390fd5b6000811161165c576040517f08c379a000000000000000000000000000000000000000000000000000000000815260040161165390613c5f565b60405180910390fd5b6011548111156116a1576040517f08c379a000000000000000000000000000000000000000000000000000000000815260040161169890613cf1565b60405180910390fd5b60006116ad6015611dcd565b9050600a5482826116be91906139d6565b11156116ff576040517f08c379a00000000000000000000000000000000000000000000000000000000081526004016116f690613d5d565b60405180910390fd5b348260135461170e9190613a98565b111561174f576040517f08c379a000000000000000000000000000000000000000000000000000000000815260040161174690613b3e565b60405180910390fd5b60005b828110156117755761176261230f565b808061176d90613b5e565b915050611752565b505050565b61178b611785611d0c565b83611ddb565b6117ca576040517f08c379a00000000000000000000000000000000000000000000000000000000081526004016117c190613647565b60405180910390fd5b6117d6848484846124f7565b50505050565b6117e46120d7565b600f60009054906101000a900460ff1615600f60006101000a81548160ff021916908315150217905550565b600e805461181d9061347f565b80601f01602080910402602001604051908101604052809291908181526020018280546118499061347f565b80156118965780601f1061186b57610100808354040283529160200191611896565b820191906000526020600020905b81548152906001019060200180831161187957829003601f168201915b505050505081565b60606118a982612553565b6118e8576040517f08c379a00000000000000000000000000000000000000000000000000000000081526004016118df90613def565b60405180910390fd5b60001515600f60019054906101000a900460ff161515141561199657600d80546119119061347f565b80601f016020809104026020016040519081016040528092919081815260200182805461193d9061347f565b801561198a5780601f1061195f5761010080835404028352916020019161198a565b820191906000526020600020905b81548152906001019060200180831161196d57829003601f168201915b505050505090506119f2565b60006119a06125bf565b905060008151116119c057604051806020016040528060008152506119ee565b806119ca84612651565b600e6040516020016119de93929190613edf565b6040516020818303038152906040525b9150505b919050565b600a5481565b611a056120d7565b80600e9080519060200190611a1b929190612c73565b5050565b611a276120d7565b600f60039054906101000a900460ff1615600f60036101000a81548160ff021916908315150217905550565b600080600960009054906101000a900473ffffffffffffffffffffffffffffffffffffffff1690508273ffffffffffffffffffffffffffffffffffffffff168173ffffffffffffffffffffffffffffffffffffffff1663c4552791866040518263ffffffff1660e01b8152600401611acb9190612f44565b60206040518083038186803b158015611ae357600080fd5b505afa158015611af7573d6000803e3d6000fd5b505050506040513d601f19601f82011682018060405250810190611b1b9190613f4e565b73ffffffffffffffffffffffffffffffffffffffff161415611b41576001915050611b4f565b611b4b84846127b2565b9150505b92915050565b60085481565b611b636120d7565b80600d9080519060200190611b79929190612c73565b5050565b611b856120d7565b600073ffffffffffffffffffffffffffffffffffffffff168173ffffffffffffffffffffffffffffffffffffffff161415611bf5576040517f08c379a0000000000000000000000000000000000000000000000000000000008152600401611bec90613fed565b60405180910390fd5b611bfe81612249565b50565b611c096120d7565b6000811015611c4d576040517f08c379a0000000000000000000000000000000000000000000000000000000008152600401611c44906136d9565b60405180910390fd5b8060138190555050565b60007f01ffc9a7000000000000000000000000000000000000000000000000000000007bffffffffffffffffffffffffffffffffffffffffffffffffffffffff1916827bffffffffffffffffffffffffffffffffffffffffffffffffffffffff1916149050919050565b611cca81612553565b611d09576040517f08c379a0000000000000000000000000000000000000000000000000000000008152600401611d0090613745565b60405180910390fd5b50565b600033905090565b816004600083815260200190815260200160002060006101000a81548173ffffffffffffffffffffffffffffffffffffffff021916908373ffffffffffffffffffffffffffffffffffffffff160217905550808273ffffffffffffffffffffffffffffffffffffffff16611d8783610eb6565b73ffffffffffffffffffffffffffffffffffffffff167f8c5be1e5ebec7d5bd14f71427d1e84f3dd0314c0f7b2291e5b200ac8c7c3b92560405160405180910390a45050565b600081600001549050919050565b600080611de783610eb6565b90508073ffffffffffffffffffffffffffffffffffffffff168473ffffffffffffffffffffffffffffffffffffffff161480611e295750611e288185611a53565b5b80611e6757508373ffffffffffffffffffffffffffffffffffffffff16611e4f84610b14565b73ffffffffffffffffffffffffffffffffffffffff16145b91505092915050565b8273ffffffffffffffffffffffffffffffffffffffff16611e9082610eb6565b73ffffffffffffffffffffffffffffffffffffffff1614611ee6576040517f08c379a0000000000000000000000000000000000000000000000000000000008152600401611edd9061407f565b60405180910390fd5b600073ffffffffffffffffffffffffffffffffffffffff168273ffffffffffffffffffffffffffffffffffffffff161415611f56576040517f08c379a0000000000000000000000000000000000000000000000000000000008152600401611f4d90614111565b60405180910390fd5b611f61838383612846565b611f6c600082611d14565b6001600360008573ffffffffffffffffffffffffffffffffffffffff1673ffffffffffffffffffffffffffffffffffffffff1681526020019081526020016000206000828254611fbc9190614131565b925050819055506001600360008473ffffffffffffffffffffffffffffffffffffffff1673ffffffffffffffffffffffffffffffffffffffff168152602001908152602001600020600082825461201391906139d6565b92505081905550816002600083815260200190815260200160002060006101000a81548173ffffffffffffffffffffffffffffffffffffffff021916908373ffffffffffffffffffffffffffffffffffffffff160217905550808273ffffffffffffffffffffffffffffffffffffffff168473ffffffffffffffffffffffffffffffffffffffff167fddf252ad1be2c89b69c2b068fc378daa952ba7f163c4a11628f55a4df523b3ef60405160405180910390a46120d283838361284b565b505050565b6120df611d0c565b73ffffffffffffffffffffffffffffffffffffffff166120fd6113fc565b73ffffffffffffffffffffffffffffffffffffffff1614612153576040517f08c379a000000000000000000000000000000000000000000000000000000000815260040161214a906141b1565b60405180910390fd5b565b80471015612198576040517f08c379a000000000000000000000000000000000000000000000000000000000815260040161218f9061421d565b60405180910390fd5b60008273ffffffffffffffffffffffffffffffffffffffff16826040516121be9061426e565b60006040518083038185875af1925050503d80600081146121fb576040519150601f19603f3d011682016040523d82523d6000602084013e612200565b606091505b5050905080612244576040517f08c379a000000000000000000000000000000000000000000000000000000000815260040161223b906142f5565b60405180910390fd5b505050565b6000600660009054906101000a900473ffffffffffffffffffffffffffffffffffffffff16905081600660006101000a81548173ffffffffffffffffffffffffffffffffffffffff021916908373ffffffffffffffffffffffffffffffffffffffff1602179055508173ffffffffffffffffffffffffffffffffffffffff168173ffffffffffffffffffffffffffffffffffffffff167f8be0079c531659141344cd1fd0a4f28419497f9722a3daafe3b4186f6b6457e060405160405180910390a35050565b60026007541415612355576040517f08c379a000000000000000000000000000000000000000000000000000000000815260040161234c90614361565b60405180910390fd5b60026007819055506123676015612850565b60006123736015611dcd565b905061237f3382612866565b506001600781905550565b8173ffffffffffffffffffffffffffffffffffffffff168373ffffffffffffffffffffffffffffffffffffffff1614156123f9576040517f08c379a00000000000000000000000000000000000000000000000000000000081526004016123f0906143cd565b60405180910390fd5b80600560008573ffffffffffffffffffffffffffffffffffffffff1673ffffffffffffffffffffffffffffffffffffffff16815260200190815260200160002060008473ffffffffffffffffffffffffffffffffffffffff1673ffffffffffffffffffffffffffffffffffffffff16815260200190815260200160002060006101000a81548160ff0219169083151502179055508173ffffffffffffffffffffffffffffffffffffffff168373ffffffffffffffffffffffffffffffffffffffff167f17307eab39ab6107e8899845ad3d59bd9653f200f220920489ca2b5937696c31836040516124ea9190612dca565b60405180910390a3505050565b612502848484611e70565b61250e84848484612884565b61254d576040517f08c379a00000000000000000000000000000000000000000000000000000000081526004016125449061445f565b60405180910390fd5b50505050565b60008073ffffffffffffffffffffffffffffffffffffffff166002600084815260200190815260200160002060009054906101000a900473ffffffffffffffffffffffffffffffffffffffff1673ffffffffffffffffffffffffffffffffffffffff1614159050919050565b6060600c80546125ce9061347f565b80601f01602080910402602001604051908101604052809291908181526020018280546125fa9061347f565b80156126475780601f1061261c57610100808354040283529160200191612647565b820191906000526020600020905b81548152906001019060200180831161262a57829003601f168201915b5050505050905090565b60606000821415612699576040518060400160405280600181526020017f300000000000000000000000000000000000000000000000000000000000000081525090506127ad565b600082905060005b600082146126cb5780806126b490613b5e565b915050600a826126c491906144ae565b91506126a1565b60008167ffffffffffffffff8111156126e7576126e6613052565b5b6040519080825280601f01601f1916602001820160405280156127195781602001600182028036833780820191505090505b5090505b600085146127a6576001826127329190614131565b9150600a8561274191906144df565b603061274d91906139d6565b60f81b81838151811061276357612762614510565b5b60200101907effffffffffffffffffffffffffffffffffffffffffffffffffffffffffffff1916908160001a905350600a8561279f91906144ae565b945061271d565b8093505050505b919050565b6000600560008473ffffffffffffffffffffffffffffffffffffffff1673ffffffffffffffffffffffffffffffffffffffff16815260200190815260200160002060008373ffffffffffffffffffffffffffffffffffffffff1673ffffffffffffffffffffffffffffffffffffffff16815260200190815260200160002060009054906101000a900460ff16905092915050565b505050565b505050565b6001816000016000828254019250508190555050565b612880828260405180602001604052806000815250612a1b565b5050565b60006128a58473ffffffffffffffffffffffffffffffffffffffff16612a76565b15612a0e578373ffffffffffffffffffffffffffffffffffffffff1663150b7a026128ce611d0c565b8786866040518563ffffffff1660e01b81526004016128f09493929190614594565b602060405180830381600087803b15801561290a57600080fd5b505af192505050801561293b57506040513d601f19601f8201168201806040525081019061293891906145f5565b60015b6129be573d806000811461296b576040519150601f19603f3d011682016040523d82523d6000602084013e612970565b606091505b506000815114156129b6576040517f08c379a00000000000000000000000000000000000000000000000000000000081526004016129ad9061445f565b60405180910390fd5b805181602001fd5b63150b7a0260e01b7bffffffffffffffffffffffffffffffffffffffffffffffffffffffff1916817bffffffffffffffffffffffffffffffffffffffffffffffffffffffff191614915050612a13565b600190505b949350505050565b612a258383612a99565b612a326000848484612884565b612a71576040517f08c379a0000000000000000000000000000000000000000000000000000000008152600401612a689061445f565b60405180910390fd5b505050565b6000808273ffffffffffffffffffffffffffffffffffffffff163b119050919050565b600073ffffffffffffffffffffffffffffffffffffffff168273ffffffffffffffffffffffffffffffffffffffff161415612b09576040517f08c379a0000000000000000000000000000000000000000000000000000000008152600401612b009061466e565b60405180910390fd5b612b1281612553565b15612b52576040517f08c379a0000000000000000000000000000000000000000000000000000000008152600401612b49906146da565b60405180910390fd5b612b5e60008383612846565b6001600360008473ffffffffffffffffffffffffffffffffffffffff1673ffffffffffffffffffffffffffffffffffffffff1681526020019081526020016000206000828254612bae91906139d6565b92505081905550816002600083815260200190815260200160002060006101000a81548173ffffffffffffffffffffffffffffffffffffffff021916908373ffffffffffffffffffffffffffffffffffffffff160217905550808273ffffffffffffffffffffffffffffffffffffffff16600073ffffffffffffffffffffffffffffffffffffffff167fddf252ad1be2c89b69c2b068fc378daa952ba7f163c4a11628f55a4df523b3ef60405160405180910390a4612c6f6000838361284b565b5050565b828054612c7f9061347f565b90600052602060002090601f016020900481019282612ca15760008555612ce8565b82601f10612cba57805160ff1916838001178555612ce8565b82800160010185558215612ce8579182015b82811115612ce7578251825591602001919060010190612ccc565b5b509050612cf59190612cf9565b5090565b5b80821115612d12576000816000905550600101612cfa565b5090565b6000604051905090565b600080fd5b600080fd5b60007fffffffff0000000000000000000000000000000000000000000000000000000082169050919050565b612d5f81612d2a565b8114612d6a57600080fd5b50565b600081359050612d7c81612d56565b92915050565b600060208284031215612d9857612d97612d20565b5b6000612da684828501612d6d565b91505092915050565b60008115159050919050565b612dc481612daf565b82525050565b6000602082019050612ddf6000830184612dbb565b92915050565b600081519050919050565b600082825260208201905092915050565b60005b83811015612e1f578082015181840152602081019050612e04565b83811115612e2e576000848401525b50505050565b6000601f19601f8301169050919050565b6000612e5082612de5565b612e5a8185612df0565b9350612e6a818560208601612e01565b612e7381612e34565b840191505092915050565b60006020820190508181036000830152612e988184612e45565b905092915050565b6000819050919050565b612eb381612ea0565b8114612ebe57600080fd5b50565b600081359050612ed081612eaa565b92915050565b600060208284031215612eec57612eeb612d20565b5b6000612efa84828501612ec1565b91505092915050565b600073ffffffffffffffffffffffffffffffffffffffff82169050919050565b6000612f2e82612f03565b9050919050565b612f3e81612f23565b82525050565b6000602082019050612f596000830184612f35565b92915050565b612f6881612f23565b8114612f7357600080fd5b50565b600081359050612f8581612f5f565b92915050565b60008060408385031215612fa257612fa1612d20565b5b6000612fb085828601612f76565b9250506020612fc185828601612ec1565b9150509250929050565b612fd481612ea0565b82525050565b6000602082019050612fef6000830184612fcb565b92915050565b60008060006060848603121561300e5761300d612d20565b5b600061301c86828701612f76565b935050602061302d86828701612f76565b925050604061303e86828701612ec1565b9150509250925092565b600080fd5b600080fd5b7f4e487b7100000000000000000000000000000000000000000000000000000000600052604160045260246000fd5b61308a82612e34565b810181811067ffffffffffffffff821117156130a9576130a8613052565b5b80604052505050565b60006130bc612d16565b90506130c88282613081565b919050565b600067ffffffffffffffff8211156130e8576130e7613052565b5b6130f182612e34565b9050602081019050919050565b82818337600083830152505050565b600061312061311b846130cd565b6130b2565b90508281526020810184848401111561313c5761313b61304d565b5b6131478482856130fe565b509392505050565b600082601f83011261316457613163613048565b5b813561317484826020860161310d565b91505092915050565b60006020828403121561319357613192612d20565b5b600082013567ffffffffffffffff8111156131b1576131b0612d25565b5b6131bd8482850161314f565b91505092915050565b6000602082840312156131dc576131db612d20565b5b60006131ea84828501612f76565b91505092915050565b6000819050919050565b613206816131f3565b811461321157600080fd5b50565b600081359050613223816131fd565b92915050565b60006020828403121561323f5761323e612d20565b5b600061324d84828501613214565b91505092915050565b61325f81612daf565b811461326a57600080fd5b50565b60008135905061327c81613256565b92915050565b6000806040838503121561329957613298612d20565b5b60006132a785828601612f76565b92505060206132b88582860161326d565b9150509250929050565b600067ffffffffffffffff8211156132dd576132dc613052565b5b6132e682612e34565b9050602081019050919050565b6000613306613301846132c2565b6130b2565b9050828152602081018484840111156133225761332161304d565b5b61332d8482856130fe565b509392505050565b600082601f83011261334a57613349613048565b5b813561335a8482602086016132f3565b91505092915050565b6000806000806080858703121561337d5761337c612d20565b5b600061338b87828801612f76565b945050602061339c87828801612f76565b93505060406133ad87828801612ec1565b925050606085013567ffffffffffffffff8111156133ce576133cd612d25565b5b6133da87828801613335565b91505092959194509250565b600080604083850312156133fd576133fc612d20565b5b600061340b85828601612f76565b925050602061341c85828601612f76565b9150509250929050565b61342f816131f3565b82525050565b600060208201905061344a6000830184613426565b92915050565b7f4e487b7100000000000000000000000000000000000000000000000000000000600052602260045260246000fd5b6000600282049050600182168061349757607f821691505b602082108114156134ab576134aa613450565b5b50919050565b7f4552433732313a20617070726f76616c20746f2063757272656e74206f776e6560008201527f7200000000000000000000000000000000000000000000000000000000000000602082015250565b600061350d602183612df0565b9150613518826134b1565b604082019050919050565b6000602082019050818103600083015261353c81613500565b9050919050565b7f4552433732313a20617070726f76652063616c6c6572206973206e6f7420746f60008201527f6b656e206f776e6572206e6f7220617070726f76656420666f7220616c6c0000602082015250565b600061359f603e83612df0565b91506135aa82613543565b604082019050919050565b600060208201905081810360008301526135ce81613592565b9050919050565b7f4552433732313a2063616c6c6572206973206e6f7420746f6b656e206f776e6560008201527f72206e6f7220617070726f766564000000000000000000000000000000000000602082015250565b6000613631602e83612df0565b915061363c826135d5565b604082019050919050565b6000602082019050818103600083015261366081613624565b9050919050565b7f4e4d41207072696365206d7573742062652067726561746572207468616e207a60008201527f65726f0000000000000000000000000000000000000000000000000000000000602082015250565b60006136c3602383612df0565b91506136ce82613667565b604082019050919050565b600060208201905081810360008301526136f2816136b6565b9050919050565b7f4552433732313a20696e76616c696420746f6b656e2049440000000000000000600082015250565b600061372f601883612df0565b915061373a826136f9565b602082019050919050565b6000602082019050818103600083015261375e81613722565b9050919050565b7f4552433732313a2061646472657373207a65726f206973206e6f74206120766160008201527f6c6964206f776e65720000000000000000000000000000000000000000000000602082015250565b60006137c1602983612df0565b91506137cc82613765565b604082019050919050565b600060208201905081810360008301526137f0816137b4565b9050919050565b7f4e6f7420616c6c6f776564206f726967696e0000000000000000000000000000600082015250565b600061382d601283612df0565b9150613838826137f7565b602082019050919050565b6000602082019050818103600083015261385c81613820565b9050919050565b7f50726573616c65206973204f4646000000000000000000000000000000000000600082015250565b6000613899600e83612df0565b91506138a482613863565b602082019050919050565b600060208201905081810360008301526138c88161388c565b9050919050565b7f436f6e7472616374206973207061757365640000000000000000000000000000600082015250565b6000613905601283612df0565b9150613910826138cf565b602082019050919050565b60006020820190508181036000830152613934816138f8565b9050919050565b7f596f752063616e2774206d696e7420736f206d75636820746f6b656e73000000600082015250565b6000613971601d83612df0565b915061397c8261393b565b602082019050919050565b600060208201905081810360008301526139a081613964565b9050919050565b7f4e487b7100000000000000000000000000000000000000000000000000000000600052601160045260246000fd5b60006139e182612ea0565b91506139ec83612ea0565b9250827fffffffffffffffffffffffffffffffffffffffffffffffffffffffffffffffff03821115613a2157613a206139a7565b5b828201905092915050565b7f4d61782070726573616c6520737570706c792065786365656465640000000000600082015250565b6000613a62601b83612df0565b9150613a6d82613a2c565b602082019050919050565b60006020820190508181036000830152613a9181613a55565b9050919050565b6000613aa382612ea0565b9150613aae83612ea0565b9250817fffffffffffffffffffffffffffffffffffffffffffffffffffffffffffffffff0483118215151615613ae757613ae66139a7565b5b828202905092915050565b7f4e6f7420656e6f756768206574686572732073656e7400000000000000000000600082015250565b6000613b28601683612df0565b9150613b3382613af2565b602082019050919050565b60006020820190508181036000830152613b5781613b1b565b9050919050565b6000613b6982612ea0565b91507fffffffffffffffffffffffffffffffffffffffffffffffffffffffffffffffff821415613b9c57613b9b6139a7565b5b600182019050919050565b7f5075626c696353616c65206973204f4646000000000000000000000000000000600082015250565b6000613bdd601183612df0565b9150613be882613ba7565b602082019050919050565b60006020820190508181036000830152613c0c81613bd0565b9050919050565b7f5a65726f20616d6f756e74000000000000000000000000000000000000000000600082015250565b6000613c49600b83612df0565b9150613c5482613c13565b602082019050919050565b60006020820190508181036000830152613c7881613c3c565b9050919050565b7f596f752063616e2774206d696e74206d6f7265207468656e203130207065722060008201527f7478000000000000000000000000000000000000000000000000000000000000602082015250565b6000613cdb602283612df0565b9150613ce682613c7f565b604082019050919050565b60006020820190508181036000830152613d0a81613cce565b9050919050565b7f4d617820737570706c7920657863656564656400000000000000000000000000600082015250565b6000613d47601383612df0565b9150613d5282613d11565b602082019050919050565b60006020820190508181036000830152613d7681613d3a565b9050919050565b7f4552433732314d657461646174613a2055524920717565727920666f72206e6f60008201527f6e6578697374656e7420746f6b656e0000000000000000000000000000000000602082015250565b6000613dd9602f83612df0565b9150613de482613d7d565b604082019050919050565b60006020820190508181036000830152613e0881613dcc565b9050919050565b600081905092915050565b6000613e2582612de5565b613e2f8185613e0f565b9350613e3f818560208601612e01565b80840191505092915050565b60008190508160005260206000209050919050565b60008154613e6d8161347f565b613e778186613e0f565b94506001821660008114613e925760018114613ea357613ed6565b60ff19831686528186019350613ed6565b613eac85613e4b565b60005b83811015613ece57815481890152600182019150602081019050613eaf565b838801955050505b50505092915050565b6000613eeb8286613e1a565b9150613ef78285613e1a565b9150613f038284613e60565b9150819050949350505050565b6000613f1b82612f23565b9050919050565b613f2b81613f10565b8114613f3657600080fd5b50565b600081519050613f4881613f22565b92915050565b600060208284031215613f6457613f63612d20565b5b6000613f7284828501613f39565b91505092915050565b7f4f776e61626c653a206e6577206f776e657220697320746865207a65726f206160008201527f6464726573730000000000000000000000000000000000000000000000000000602082015250565b6000613fd7602683612df0565b9150613fe282613f7b565b604082019050919050565b6000602082019050818103600083015261400681613fca565b9050919050565b7f4552433732313a207472616e736665722066726f6d20696e636f72726563742060008201527f6f776e6572000000000000000000000000000000000000000000000000000000602082015250565b6000614069602583612df0565b91506140748261400d565b604082019050919050565b600060208201905081810360008301526140988161405c565b9050919050565b7f4552433732313a207472616e7366657220746f20746865207a65726f2061646460008201527f7265737300000000000000000000000000000000000000000000000000000000602082015250565b60006140fb602483612df0565b91506141068261409f565b604082019050919050565b6000602082019050818103600083015261412a816140ee565b9050919050565b600061413c82612ea0565b915061414783612ea0565b92508282101561415a576141596139a7565b5b828203905092915050565b7f4f776e61626c653a2063616c6c6572206973206e6f7420746865206f776e6572600082015250565b600061419b602083612df0565b91506141a682614165565b602082019050919050565b600060208201905081810360008301526141ca8161418e565b9050919050565b7f416464726573733a20696e73756666696369656e742062616c616e6365000000600082015250565b6000614207601d83612df0565b9150614212826141d1565b602082019050919050565b60006020820190508181036000830152614236816141fa565b9050919050565b600081905092915050565b50565b600061425860008361423d565b915061426382614248565b600082019050919050565b60006142798261424b565b9150819050919050565b7f416464726573733a20756e61626c6520746f2073656e642076616c75652c207260008201527f6563697069656e74206d61792068617665207265766572746564000000000000602082015250565b60006142df603a83612df0565b91506142ea82614283565b604082019050919050565b6000602082019050818103600083015261430e816142d2565b9050919050565b7f5265656e7472616e637947756172643a207265656e7472616e742063616c6c00600082015250565b600061434b601f83612df0565b915061435682614315565b602082019050919050565b6000602082019050818103600083015261437a8161433e565b9050919050565b7f4552433732313a20617070726f766520746f2063616c6c657200000000000000600082015250565b60006143b7601983612df0565b91506143c282614381565b602082019050919050565b600060208201905081810360008301526143e6816143aa565b9050919050565b7f4552433732313a207472616e7366657220746f206e6f6e20455243373231526560008201527f63656976657220696d706c656d656e7465720000000000000000000000000000602082015250565b6000614449603283612df0565b9150614454826143ed565b604082019050919050565b600060208201905081810360008301526144788161443c565b9050919050565b7f4e487b7100000000000000000000000000000000000000000000000000000000600052601260045260246000fd5b60006144b982612ea0565b91506144c483612ea0565b9250826144d4576144d361447f565b5b828204905092915050565b60006144ea82612ea0565b91506144f583612ea0565b9250826145055761450461447f565b5b828206905092915050565b7f4e487b7100000000000000000000000000000000000000000000000000000000600052603260045260246000fd5b600081519050919050565b600082825260208201905092915050565b60006145668261453f565b614570818561454a565b9350614580818560208601612e01565b61458981612e34565b840191505092915050565b60006080820190506145a96000830187612f35565b6145b66020830186612f35565b6145c36040830185612fcb565b81810360608301526145d5818461455b565b905095945050505050565b6000815190506145ef81612d56565b92915050565b60006020828403121561460b5761460a612d20565b5b6000614619848285016145e0565b91505092915050565b7f4552433732313a206d696e7420746f20746865207a65726f2061646472657373600082015250565b6000614658602083612df0565b915061466382614622565b602082019050919050565b600060208201905081810360008301526146878161464b565b9050919050565b7f4552433732313a20746f6b656e20616c7265616479206d696e74656400000000600082015250565b60006146c4601c83612df0565b91506146cf8261468e565b602082019050919050565b600060208201905081810360008301526146f3816146b7565b905091905056fea26469706673582212200fedda592ebaf1c02d1d2d08be4d4abd3d3c8bf2fe80b739913cf9f9cc7b327564736f6c63430008090033697066733a2f2f516d5547766654324761744734693341756f3359513255594a666b69705172556a53395058797647766d414a374e2f68696464656e2e6a736f6e",
  "linkReferences": {},
  "deployedLinkReferences": {}
}